:020000040800F2
:10000000E05000242D0400082F2900083B28000898
:100010002D29000877060008F12D000800000000D7
:100020000000000000000000000000006D03000858
:100030007906000800000000C9030008792B0008B9
:100040004B0400084B0400084B0400084B04000854
:100050004B0400084B0400084B0400084B04000844
:100060004B0400084B0400084B0400084B04000834
:100070004B0400084B0400084B0400084B04000824
:100080004B0400084B0400084B0400089D060008C0
:100090004B0400084B0400084B0400084B04000804
:1000A0004B0400084B0400084B0400084B040008F4
:1000B000052D00084B0400084B0400084B04000801
:1000C0004B0400084B0400084B0400084B040008D4
:1000D0004B0400084B0400084B0400084B040008C4
:1000E0004B0400084B040008000000004B0400080B
:1000F0004B0400084B0400084B0400084B040008A4
:100100004B0400084B0400084B0400084B04000893
:100110004B0400084B0400084B0400084B04000883
:100120004B0400084B0400084B0400084B04000873
:100130004B0400084B0400084B0400084B04000863
:1001400000000000000000000000000000000000AF
:100150004B0400084B0400084B0400084B04000843
:100160004B0400084B0400084B0400084B04000833
:100170004B0400084B0400084B040008000000007A
:100180004B0400084B0400084B0400084B04000813
:100190004B0400084B0400084B0400084B04000803
:1001A0004B0400084B0400084B040008000000004A
:1001B0004B0400084B0400084B0400084B040008E3
:1001C0004B0400084B040008000000000000000081
:1001D00000000000000000004B04000800000000C8
:1001E000000000000000000000000000000000000F
:1001F00000000000000000004B0400084B04000851
:100200004B0400084B040008000000004B040008E9
:100210004B0400084B0400084B0400084B04000882
:100220004B040008000000004B0400080000000020
:100230004B0400084B040008000000004B040008B9
:100240004B0400084B0400084B0400084B04000852
:100250004B0400084B0400084B0400084B04000842
:100260004B0400084B0400084B0400084B04000832
:100270004B0400084B0400084B0400080000000079
:100280004B0400084B0400084B0400084B04000812
:10029000000000004B0400084B04000800000000B0
:1002A000000000004B0400084B0400084B04000849
:1002B0004B0400084B0400084B0400084B040008E2
:1002C0004B0400084B0400084B04000800F002F83F
:1002D00000F03CF80AA090E8000C82448344AAF1A4
:1002E0000107DA4501D100F031F8AFF2090EBAE8A2
:1002F0000F0013F0010F18BFFB1A43F0010318475A
:10030000CC430000EC430000103A24BF78C878C109
:10031000FAD8520724BF30C830C144BF04680C600B
:10032000704700000023002400250026103A28BF53
:1003300078C1FBD8520728BF30C148BF0B60704757
:100340001FB504F06FF91FBD10B510BD00F05DF9C9
:100350001146FFF7F5FF02F05DFD00F07BF903B4F5
:10036000FFF7F2FF03BC00F07FF900002C4B196887
:100370000868B0E8F04F80F30988BFF36F8F4FF043
:10038000000080F3118870470000000008480068F2
:10039000006880F308884FF0000080F3148862B68C
:1003A00061B6BFF34F8FBFF36F8F00DF00BF00BF99
:1003B00008ED00E0DFF80C00016841F47001016015
:1003C000704700BF88ED00E0EFF30980BFF36F8F47
:1003D000134B1A681EF0100F08BF20ED108A20E999
:1003E000F04F106009B44FF0500080F31188BFF354
:1003F0004F8FBFF36F8F03F0DFFB4FF0000080F3F0
:10040000118809BC19680868B0E8F04F1EF0100F99
:1004100008BFB0EC108A80F30988BFF36F8F704774
:1004200018000024EFF30580704700000A48804759
:100430000A4880470A480047FEE7FEE7FEE7FEE776
:10044000FEE7FEE7FEE7FEE7FEE7FEE705480649B2
:10045000064A074B70470000810600082D2C000853
:10046000CD020008E04A0024E0500024E04C0024C3
:10047000E04C0024032A40F2308010F0030C00F01E
:10048000158011F8013BBCF1020F624498BF11F8CE
:1004900001CB00F8013B38BF11F8013BA2F1040287
:1004A00098BF00F801CB38BF00F8013B11F00303FF
:1004B00000F02580083AC0F0088051F8043B083A63
:1004C00051F804CBA0E80810F5E7121D5CBF51F805
:1004D000043B40F8043BAFF30080D20724BF11F87F
:1004E000013B11F801CB48BF11F8012B24BF00F8E4
:1004F000013B00F801CB48BF00F8012B704710B555
:10050000203AC0F00B80B1E81850203AA0E818500B
:10051000B1E81850A0E81850BFF4F5AF5FEA027CCC
:1005200024BFB1E81850A0E8185044BF18C918C03B
:10053000BDE810405FEA827C24BF51F8043B40F8DC
:10054000043B08BF7047D20728BF31F8023B48BFC1
:1005500011F8012B28BF20F8023B48BF00F8012BFF
:10056000704702F0FF0343EA032242EA024200F02E
:100570002CB84FF0000200B5134694469646203939
:1005800022BFA0E80C50A0E80C50B1F12001BFF44C
:10059000F7AF090728BFA0E80C5048BF0CC05DF8B2
:1005A00004EB890028BF40F8042B08BF704748BF00
:1005B00020F8022B11F0804F18BF00F8012B704774
:1005C0007047704770474FF000020429C0F0128056
:1005D00010F0030C3FF4CFAFCCF1040CBCF1020FD0
:1005E00018BF00F8012BA8BF20F8022BA1EB0C01CB
:1005F000FFF7C1BF5FEAC17C24BF00F8012B00F800
:10060000012B48BF00F8012B7047754600F028F811
:10061000AE4605006946534620F00700854618B0EF
:1006200020B5FFF713FFBDE820404FF000064FF064
:1006300000074FF000084FF0000B21F00701AC4617
:10064000ACE8C009ACE8C009ACE8C009ACE8C00936
:100650008D4670470446AFF300802046FFF77FFECB
:1006600000487047804A002401491820ABBEFEE7CD
:10067000260002007047FEE7704772B6FEE70000F2
:10068000054805490839026842F00202026008681C
:100690008004FCD5704700000C480258014800F067
:1006A00019B90000C0000024F0B503684FF6FC71D2
:1006B0006D4C426BD3F884508D4345EA8205C3F8F4
:1006C0008450036853F8845F068F25F47F0545EA5C
:1006D00006451D60836B654D9F180268D2F888300F
:1006E0008B4343EA8703C2F88830026852F8883F98
:1006F000868F23F4FE0343EA06431360066856F828
:10070000A03FC26B8B4307EB420243EA8203336094
:10071000076857F8A03FB0F8406023F4FE0343EAAF
:1007200006433B60D0E9103603FB06220368D3F88A
:10073000B0608E4346EA8206C3F8B0600368B0F842
:100740004860D3F8B07027F4FE0747EA0646C3F8BE
:10075000B060D0E91267036806FB0722D3F8AC60EB
:100760008E4346EA8206C3F8AC60D0E9146703689A
:1007700006FB0722D3F8F0608E4346EA8206C3F8F0
:10078000F0600368B0F85860D3F8F07027F47C1775
:1007900047EA0646C3F8F0600368876D53F8C06FF8
:1007A00002EB47028E4346EA820119600168B0F805
:1007B0005C20D1F8C03023F47C1343EA0242C1F834
:1007C000C020016890F86020D1F8C03023F07C533D
:1007D00043EA0262C1F8C020416B04EB8101C166AB
:1007E000826B01EB82020267C36B02EBC3024267BA
:1007F000D0E91034634302EB83028267D0E91234FC
:10080000634302EB8302C267D0E91434634302EB13
:100810008302C0F88020836D02EBC303C0F88430EC
:10082000C46D826E544303EB8403C0F88830046EB9
:10083000544303EB8402C0F89020AA420AD9D0F8AE
:100840009C20032142F02002C0F89C2080F89810E0
:100850000120F0BD002200E004C1D0F890308B42AE
:10086000FAD80020F0BD000000AC0040FCD30040EE
:1008700070B5040004D094F82100002510B106E002
:10088000012070BD204684F8205000F00BF80120B4
:1008900065626560A560E5602561656184F8210099
:1008A000002070BD08B500680649884208D1064896
:1008B000016841F400310160006800F400300090EC
:1008C00008BD000000440248DC44025870477047ED
:1008D000704770472DE9FF5FDFF80CB304460BF15A
:1008E0000401DBF8000025680F68AA468007D5F8E8
:1008F0005090696DD5F850806E6D2A6DD5F854C052
:100900002B6D00EA8770009009F470496F6D286DB7
:1009100001EA09010191DAF85410DAF85490DAF892
:10092000505008F00F0806EA0806029602F0F0029E
:1009300003F071536FEA09061F4000F060700CEA83
:10094000020CCDF80CC0F20501EA00090CD4E84312
:10095000C00509D400214FF48073CAF85030CBF899
:1009600000102046FFF7B5FF700512D4E84340059C
:100970000FD4206800234FF48068D0F8DC20D0F832
:10098000E410C0F85080CBF800301140204600F051
:10099000B2FADFF858A2009850B12268830F00EA3B
:1009A0000A001065CBF8003020460099FFF78EFF53
:1009B000019850B12268830F00EA0A001065CBF855
:1009C00000302046019900F098FA029850B1226850
:1009D000830F00EA0A001065CBF800302046029928
:1009E00000F081FA039850B12268830F00EA0A00F0
:1009F0001065CBF800302046039900F075FA3005F9
:100A00000CD4E843000509D4236800204FF40062A9
:100A10001A65CBF80000204600F070FAB00512D439
:100A2000E84380050FD4206800234FF40078D0F805
:100A3000D820D0F8E010C0F85080CBF8003011403A
:100A4000204600F059FA30030CD4E843000309D4DF
:100A5000236800204FF400221A65CBF800002046DE
:100A600000F040FAF0030CD4E843C00309D4236833
:100A700000204FF480321A65CBF80000204600F0C9
:100A800039FA70030CD4E843400309D422680020EB
:100A90004FF480231365CBF80000204600F029FABC
:100AA000B0030FD4E84380030CD4236800204FF434
:100AB00000321A65CBF80000D4F89C0040F08000AA
:100AC000C4F89C00B9F1000F0BD022684FEA99736B
:100AD00009EA0A001065CBF8003049462046FFF7C6
:100AE000F7FE5FB12268BB0F07EA0A001065CBF87A
:100AF0000030D4F89C003843C4F89C003C4920687E
:100B0000884268D1606881468068800763D0D9F8E0
:100B10002060D9F82410D9F82080D9F82400D9F819
:100B200020C0D9F82470D9F82030D9F82450D9F849
:100B3000202003F4FC4306F00F0AD9F824601D407E
:100B4000D9F824B008F030080CF4C07C02F4F0228C
:100B500011EA0A0100EA080807EA0C0706EA020699
:100B6000D9F820A004D0C9F82010204600F0BEF922
:100B70005FEA080005D0616808624146204600F03F
:100B8000B7F96FEA0B0040060ED46FEA0A00400680
:100B90000AD460684021C36BC26B01622046190C05
:100BA00002F03F0200F0A3F92FB1606807623946F6
:100BB000204600F09AF935B160680562D4F89C00CF
:100BC0002843C4F89C0036B160680662D4F89C00E3
:100BD0003043C4F89C00D4F89C00002802D0204682
:100BE000FFF775FEBDE8FF9F10A80040FFFFCF3F55
:100BF00000A000402DE9F04194B08D494C220446FC
:100C00006846FFF77CFC64B18A4D2068A84202D197
:100C100000F58070606094F898004FF0000820B1F3
:100C200008E0012014B0BDE8F081204684F89980E6
:100C300000F002F92068816921F01001816100F063
:100C40006DFA0327064604E000F068FA801B0A28C4
:100C500011D8206880690007F6D42068816941F0C6
:100C60000101816100F05AFA06460DE000F056FAE3
:100C7000801B0A2808D9D4F89C0040F00100C4F871
:100C80009C0084F89870CCE720688069C007EDD09C
:100C90002068816941F002018161207C012820687F
:100CA000816937D041F040018161607C0128206872
:100CB000816932D021F480418161A07C01282068C3
:100CC00081692DD041F4805181612068A2688169D9
:100CD00021F44071114381612068816921F0A401F0
:100CE00081612068016921F010010161E06801283B
:100CF00019D010B302281BD02068816941F080010F
:100D000081612068016941F010010161E0680328F8
:100D10000ED012E021F04001C6E741F48041CBE75C
:100D200021F48051D0E72068816941F0040103E09B
:100D30002068816941F020018161207E6FF0FF020F
:100D4000D4E90773A68A1102400602EB0727A0F137
:100D50000070384327685B1E184301EB064630439A
:100D6000F861A068B0F5407F11D104F12800A68C8D
:100D70006FF00F0C89C801EB0641401E02EB032205
:100D8000104322680CEB071318430843D060206E11
:100D900030B12068626ED0F8C0101143C0F8C010A6
:100DA000D4E917126846D14209D02168A36E51F8E0
:100DB000C82F50F8233022F007021A430A60216C32
:100DC00049B12168626C51F8BC3F50F8226023F0B1
:100DD000070232430A60A16C51B12168E36C51F8FB
:100DE000BC2F50F8233022F0700242EA03120A604E
:100DF000216D51B12168626D51F8BC3F50F822005D
:100E000023F4E06242EA002008602068A84204D18E
:100E10006068816821F003018160C4F89480012139
:100E2000C4F89C8084F898102046FFF73DFCF9E652
:100E30006446000800A0004030B5B5B00446142157
:100E40002EA8FFF796FBB8216846FFF792FB2249D0
:100E5000206888423DD1002102250C464FF4004015
:100E60008DE823001422CDE90325C02305950695BE
:100E70008003CDE9073109911B90684600F04CFAD8
:100E800008B1FFF7FAFB1548016841F48071016071
:100E9000006800F48070339010480C38016841F00D
:100EA000080101600068092100F008003390032068
:100EB0002E90CDE92F54CDE9314109482EA900F0FB
:100EC0001FF800220521132000F0CAF9132000F0BA
:100ED000B9F935B030BD000000A00040EC44025824
:100EE000000C025870477047704770477047704752
:100EF00070477047704770477047704770470000F1
:100F00002DE9F84F03247A4D00234FF001094FF0EB
:100F1000B04B4FF00F0AE4E009FA03F6324078D004
:100F20000F7907F00307012F01D0022F1AD187682C
:100F30004FEA430ED1F80CC004FA0EF827EA08076E
:100F40000CFA0EFC4CEA070CC0F808C0476891F890
:100F500004C0B743CCF3001C0CFA03FC4CEA070CAA
:100F6000C0F804C00E79F643B6070BD0C6684FEA46
:100F700043088F6804FA08FC26EA0C0607FA08F70B
:100F80003743C7600E7906F00306022E12D1DE0841
:100F90000F694FEA437C00EB8606B646366A4FEA95
:100FA000DC6C0AFA0CF807FA0CF726EA0806374355
:100FB000CEF820700F7906684FEA430807F0030760
:100FC00004FA08FC07FA08F726EA0C06374307601C
:100FD0004E6816F4403F1CD0464E376847F0020773
:100FE000376036689F0706F00206009623F0030676
:100FF00006F1B046B6463F0FD6F80864DFF8F88031
:101000000AFA07FC404526EA0C0603D14FF0000C13
:101010003AE065E0DFF8E4C0604502D14FF0010C32
:1010200032E0DFF8DCC0604502D14FF0020C2BE06B
:10103000DFF8D0C0604502D14FF0030C24E0DFF8A8
:10104000C8C0604502D14FF0040C1DE0DFF8BCC001
:10105000604502D14FF0050C16E0DFF8B4C06045E2
:1010600002D14FF0060C0FE0DFF8A8C0604502D1B6
:101070004FF0070C08E0DFF8A0C0604502D14FF048
:10108000090C01E04FF00A0C0CFA07FC4CEA060CC4
:10109000CEF808C44F68DBF80060FF0226EA0206BB
:1010A00000D516435F46CBF80060D1F804C0DBF8EA
:1010B00004605FEA8C2C26EA020600D516437E60A7
:1010C0006E684F6826EA0206BF0300D516436E60BD
:1010D0002E684F6826EA0206FF0300D516432E60ED
:1010E0005B1C0A6832FA03F67FF416AFBDE8F88F8E
:1010F00080000058F44402580000025800040258CE
:1011000000080258000C025800100258001402583F
:1011100000180258001C0258002402580148806838
:1011200070470000040000240248816802781144DE
:101130008160704704000024032010B500F0B0F86F
:1011400000F018FF0F4A104914681368C4F3032213
:1011500003F00F038A5CC95C02F01F0201F01F015B
:10116000D0400A4A20FA01F11160094908600F20B5
:1011700000F010F808B1012010BD00F051F8002077
:1011800010BD000018440258B046000814000024A6
:101190001000002410B5102804468AB02DD2002279
:1011A00001461C2000F05CF81C2000F04BF81848A9
:1011B00004601848016841F001010160006809A954
:1011C00000F001000890684600F072FE0598B8B182
:1011D00000F0BEFE40001049002240F2E733B0FBB1
:1011E000F1F10E484FF080440460C0E90332491E1B
:1011F000C0E9011201F0F0F928B101200AB010BDD8
:1012000000F0A6FEE7E7054801F018FAF6E700004F
:1012100008000024E844025840420F006001002406
:10122000074882B0016841F00201016000680022B5
:101230000F2100F002000090901E02B000F010B8E4
:10124000F4440258002809DB410900F01F0289001C
:10125000012001F1E0219040C1F800017047000039
:101260000E4BF0B41B680D46C3F30223C3F107060F
:10127000042E00D90426191D072901D2002300E0FD
:10128000DB1E012404FA06F19C40491E2940641E1D
:10129000994014402143F0BC01F0ABBD0CED00E0DF
:1012A000064900F0070210B54FF6FF040868044B2A
:1012B000204040EA02201843086010BD0CED00E019
:1012C0000000FA05134970B50A68D243520705D5E4
:1012D000096801F00701814213D118E00A6822F081
:1012E000070202430A60FFF719FF0A4D4FF47A76AE
:1012F0000446083D07E000BFFFF710FF001BB042A7
:1013000001D9012070BD2868C0438004F4D40020B6
:1013100070BD00000C4802582DE9FE4F0546DFF86D
:1013200000A450F8081B0024FD4FC943019005F1AB
:10133000280026460AF1240A009008011DD4686E90
:1013400050B1B0F5801F0CD0B0F5001F0ED0B0F535
:10135000401F1ED001240FE0386840F40030386090
:1013600017E00198022101F0E3FA03E0009802215E
:1013700001F06EFB04000CD026462888C043C0054F
:1013800023D4A86D05281ED2DFE800F00C11161B2F
:101390001B006A6EDAF8001021F440111143CAF8FC
:1013A0000010EAE7386840F40030386009E001983E
:1013B000002101F0BDFA03E00098002101F048FB94
:1013C0000446C4B100E0012426462888DFF8508393
:1013D000C04308F12C0840052FD4D5F8A400B0F57F
:1013E000C00F28D010DCB8B1B0F5001F19D0B0F58F
:1013F000800F0FD11AE0AA6DDAF8001021F0070172
:101400001143CAF80010E0E7B0F5000F13D0B0F5B3
:10141000200F10D001240FE0386840F4003038600D
:1014200009E00198002101F083FA03E0009800210F
:1014300001F00EFB044694B126462888C0430005FF
:1014400030D4D5F8A800B0F1407F29D011DCC0B16C
:10145000B0F1807F1AD0B0F1007F10D11BE0D5F839
:10146000A420D8F8001021F460011143C8F800103E
:10147000E3E7B0F1806F13D0B0F1A06F10D001247A
:101480000FE0386840F40030386009E0019800212E
:1014900001F04EFA03E00098002101F0D9FA044669
:1014A00094B126462868DFF878B2C0430BF1200BD0
:1014B00080011FD4E86CD8B110280FD0202812D09A
:1014C000302815D0012414E0D5F8A820D8F8001051
:1014D00021F0E0611143C8F80010E3E7386840F4F8
:1014E0000030386004E00198022101F021FA04463E
:1014F00074B126462888C043C0042BD4E86DB0F5EB
:10150000005F20D00DDCA0B1B0F5805F0FD115E0F9
:10151000EA6CDBF8001021F030011143CBF8001029
:10152000E8E7B0F5405F13D0B0F5804F10D001244C
:101530000FE0386840F40030386009E0019800217D
:1015400001F0F6F903E00098002101F081FA044669
:101550008CB126462888C043800429D4286EB0F573
:10156000403F23D010DC08B3B0F5803F14D0B0F575
:10157000003F0FD115E0EA6DDAF8001021F4E041E8
:101580001143CAF80010E5E7B0F5802F0ED0B0F592
:10159000A02F0BD001240AE00198012101F0C8F925
:1015A00003E00098012101F053FA044694B1264665
:1015B0002888C04340042AD4D5F8AC00B0F1405F7D
:1015C00023D010DC08B3B0F1805F14D0B0F1005F1D
:1015D0000FD115E02A6EDAF8001021F4E021114352
:1015E000CAF80010E4E7B0F1804F0ED0B0F1A04F80
:1015F0000BD001240AE00198012101F099F903E0E0
:101600000098012101F024FA044674B12646288886
:10161000C04300041FD4E86ED8B1B0F1805F0ED093
:10162000B0F1005F10D0012414E0D5F8AC20D8F858
:10163000001021F0E0411143C8F80010E7E73868D6
:1016400040F40030386004E00198012101F070F9A5
:10165000044674B126462868C043C0011ED4A86C55
:10166000D0B101280ED0022811D0032814D00124B3
:1016700013E0EA6EDAF8001021F040511143CAF885
:101680000010E8E7386840F40030386004E0019862
:10169000022101F04DF904466CB126462868C0438A
:1016A000400255D41F48016841F480710160FFF782
:1016B00035FD81460EE0AA6CDBF8001021F0030135
:1016C0001143CBF80010E9E7FFF728FDA0EB090074
:1016D00064283BD813480068C005F5D5BCBBDFF8CB
:1016E0004090B5F8B01009F14409D9F8000001F4B0
:1016F000407100F44070884211D0D9F80010D9F838
:10170000002021F4407142F48032C9F80020D9F859
:10171000002022F48032C9F80020C9F8001003E04C
:101720002C44025800480258D5F8B000B0F5807F2C
:1017300019D1FFF7F3FC029011E000BFFFF7EEFCB8
:101740000299411A41F28830814208D90324264681
:101750002878DFF81494C043C00721D03CE0D9F8C2
:1017600000008007EAD5D5F8B010C1F301200328A6
:10177000FE480DD0016821F47C510160B5F8B0201D
:10178000D9F80010C2F30B021143C9F80010DFE7CB
:10179000F74A036802EA111223F47C511143ECE783
:1017A000A86F182816D005DCA0B1082808D010288A
:1017B00004D10AE020280DD028280BD001240AE00B
:1017C0000198012101F0B4F803E00098012101F033
:1017D0003FF9044664B126462878C04380071ED4EA
:1017E000686F062819D2DFE800F0160C11161616DD
:1017F000AA6FD9F8001021F038011143C9F8001080
:10180000EAE70198012101F093F803E00098012133
:1018100001F01EF904467CB100E001242646287838
:10182000C04340071FD4D5F89000062819D2DFE83E
:1018300000F0160C111616166A6FD9F8001021F078
:1018400007011143C9F80010E9E70198012101F0EF
:101850006FF803E00098012101F0FAF80446A4B102
:1018600000E0012426462878C04380062BD4D5F812
:101870008C00B0F1405F24D011DC10B3B0F1805F78
:1018800015D0B0F1005F10D116E0D5F89020D8F84F
:10189000001021F007011143C8F80010E3E7B0F190
:1018A000804F0ED0B0F1A04F0BD001240AE0019878
:1018B000002101F03DF803E00098022101F0C8F892
:1018C000044694B126462878C04340062BD4D5F868
:1018D0009800B0F5406F24D011DC10B3B0F5806FE4
:1018E00015D0B0F5006F10D116E0D5F88C20D9F8DE
:1018F000001021F0E0411143C9F80010E3E7B0F512
:10190000805F0ED0B0F5A05F0BD001240AE00198F3
:10191000002101F00DF803E00098022101F098F891
:10192000044694B126462878C04300062BD4D5F847
:101930009C00B0F5C04F24D011DC10B3B0F5005FAF
:1019400015D0B0F5804F10D116E0D5F89820D8F812
:10195000001021F4E0511143C8F80010E3E7B0F59E
:10196000004F0ED0B0F5204F0BD001240AE00198B3
:10197000002100F0DDFF03E00098022101F068F88B
:10198000044654B126462878C04300071ED4D5F833
:101990008000B0F5805F0AD00FE0D5F89C20D8F821
:1019A000001021F460411143C8F80010EBE70098E3
:1019B000022101F04DF800B10126D5F88020D9F8B8
:1019C000001021F440511143C9F800102878C04399
:1019D000C00613D4D5F89400B0F5807F05D10098E7
:1019E000022101F035F800B10126D5F89420D8F88D
:1019F000001021F440711143C8F800102868C0435A
:101A0000000316D4D5F8A00038B1B0F5803F09D056
:101A1000B0F5003F0BD001240AE00198002100F04E
:101A200087FF03E00098022101F012F804468CB110
:101A300026462868C043400322D4D5F88400B0F578
:101A4000801F11D0B0F5001F13D0B0F5401F15D086
:101A5000012414E0D5F8A020D8F8001021F440317A
:101A60001143C8F80010E4E7386840F400303860EB
:101A700004E00098012100F0EBFF04465CB126462B
:101A80002868C043C0031CD4286D70B1B0F5803FF6
:101A900010D0012414E0D5F88420D9F8001021F4E6
:101AA00040111143C9F80010EAE7386840F40030EB
:101AB000386004E00198022100F03AFF0446DCB1EE
:101AC00026462868C043800005D40098022100F013
:101AD000BFFF00B101262868C04380031BD4E86F14
:101AE000B8B1B0F5807F10D0B0F5007F11D0B0F55F
:101AF000407F0ED001240DE02A6DDBF8001021F4A8
:101B000080311143CBF80010DBE7386840F4003037
:101B100038607CB326462868C043C00207D42A6FC9
:101B2000DAF8001021F000411143CAF800102868CB
:101B3000C043800207D4AA6EDAF8001021F0807149
:101B40001143CAF800102868C043400009D4074870
:101B5000016821F4004101600168D5F8B420114307
:101B600001602868C04306E05444025810440258FB
:101B7000CFFFFF001DE007D46A6DDBF8001021F0F5
:101B800040511143CBF800102868C043000208D42C
:101B9000D5F88820D9F8001021F440011143C9F884
:101BA000001028790024C04300F00100204309D030
:101BB0000EE0EA6FD9F8001021F440711143C9F822
:101BC0000010A8E70198002100F0B2FE00B106461F
:101BD0002879C04300F00200204305D1019801217B
:101BE00000F0A6FE00B106462879C04300F00400CC
:101BF000204305D10198022100F09AFE00B106466B
:101C00002879C04300F00800204305D10098002146
:101C100000F01EFF00B106462879C04300F0100016
:101C2000204305D10098012100F012FF00B10646C3
:101C30002879C04300F02000044304D10098022119
:101C400000F006FF00B916B10120BDE8FE8F0020AC
:101C5000FBE700002DE9F05F04000F467ED0DFF8BF
:101C60003882D8F8000000F00F00B8420CD2D8F843
:101C7000001021F00F013943C8F80010D8F8000017
:101C800000F00F00B84269D12078844D40070AD592
:101C90002069296801F07001884204D9296821F07F
:101CA00070010143296020787C4E361D00070AD55B
:101CB0006069316801F07001884204D9316821F00F
:101CC0007001014331602078C0060AD5A0693168EF
:101CD00001F4E061884204D9316821F4E0610143F4
:101CE00031602078DFF8B4B180060BF1080B0CD519
:101CF000E1695846DBF8002002F07002914204D9F5
:101D0000026822F070020A430260207880070AD538
:101D1000E068296801F00F01884204D9296821F0A0
:101D20000F01014329602078C0073ED05B49A268BB
:101D30002868183920F47060104328606068022811
:101D400018D0032819D00968012819D0490700299B
:101D50004ADADFF848A1AAF1080A00E044E0DAF81C
:101D6000002022F007020243CAF80020FFF7D6F94C
:101D7000814612E009688903E9E709688901E6E715
:101D8000C905E4E7FFF7CAF9A0EB090141F2883081
:101D9000814202D90320BDE8F09F6168DAF80000B3
:101DA00000F03800B0EBC10FECD1207880070AD5E5
:101DB000E068296801F00F01884204D2296821F007
:101DC0000F0101432960D8F80010404601F00F01CF
:101DD000B9420BD9016821F00F0139430160006855
:101DE00000F00F00B84201D00120D4E7207840076E
:101DF0000AD52069296801F07001884204D2296857
:101E000021F0700101432960207800070AD560693C
:101E1000316801F07001884204D2316821F070010C
:101E2000014331602078C0060AD5A069316801F409
:101E3000E061884204D2316821F4E06101433160FD
:101E4000207880060CD5E1695846DBF8002002F0C6
:101E50007002914204D2026822F070020A430260CA
:101E600000F088F80E492A682B68C2F3032203F0B9
:101E70000F038A5CC95C02F01F0201F01F01D04011
:101E8000084A20FA01F11160074908600748006814
:101E9000BDE8F05FFFF77EB90020005218440258F9
:101EA000B04600081400002410000024080000249C
:101EB00070B5144C3F220260124A24680832131D88
:101EC000114D04F00704446016681C1D06F470668A
:101ED0008660166806F00F06C660126802F070028F
:101EE00002611A6802F0700242611A6802F4E0624C
:101EF0008261226802F07002C261286800F00F005F
:101F0000086070BD104402580020005230B500F047
:101F100031F80B4A0B490C4B15681468C5F30322C2
:101F200004F00F048A5C095D02F01F0201F01F013A
:101F3000D040064A20FA01F119601060084630BD11
:101F400018440258B0460008140000241000002471
:101F500000B5FFF7DBFF05490968054AC1F3021127
:101F6000515C01F01F01C84000BD00001C44025834
:101F7000B0460008454970B545480968434B103BD9
:101F800011F0380208D00111082A03D0102A0BD012
:101F9000182A0BD0084670BD19688906FBD5196848
:101FA000C1F3C101C84070BD3A4870BD3749374DD3
:101FB00018310C1D24350A68096826682D6802F05E
:101FC000030406F00102C1F30511C5F3CC0515FBAE
:101FD00002F200EE102AB8EE400AE9B32F4ADFED14
:101FE0002E0AB7EE001A6CB1DFED2D1A012C01D0CC
:101FF000022C43D002EE101A1068F8EE422A81EE4D
:10200000A22A1EE01C68A40611D51B6801EE901AD6
:102010001168C3F3C103F8EE612AD84001EE900ABB
:10202000C1F30800F8EE611A81EEA22A0BE001EE7E
:10203000901ADFED1C2A00BFF8EE611A106882EEDC
:10204000A12AC0F3080001EE900AF8EE611A40EEF2
:10205000201A31EE810A00E015E022EE000A106835
:10206000C0F34620401C00EE900AF8EE600A80EEB5
:10207000201ABCEEC10A10EE100A70BD01EE901AD3
:10208000DFED092AD8E7002070BD00001044025897
:102090000090D00300366E01000000393044025831
:1020A0000024744A0024744C001BB74B2DE9F05FE8
:1020B00004007DD0FF4F2078FE4D1837DFF8F48301
:1020C000103DC00748D0D8F80000396800F038004B
:1020D000102815D0182803D101F0030002280FD0D2
:1020E0006068B0F5803F12D010B1B0F5A02F18D0C5
:1020F000286820F480302860286820F4802009E0D7
:102100002868800328D560680028D2D024E0286899
:1021100040F480302860606888B1FEF7FFFF064613
:1021200009E0286840F480202860F0E7FEF7F6FF19
:10213000801B64287ED828688003F7D50CE0FEF762
:10214000EDFF064605E000BFFEF7E8FF801B6428B0
:10215000F0D828688003F7D42078800756D5D8F8BF
:102160000000DFF85093396810F03800A9F10C092D
:102170000ED0182801D188070AD0E068A8B32968D2
:1021800021F0190101432960FEF7C8FF064628E047
:102190002868400702D5E06800288AD0E1682868EE
:1021A00020F0190008432860FEF7B8FF064606E055
:1021B000D2E000BFFEF7B2FF801B0228BAD8286821
:1021C0004007F7D5217CD9F8002022F0FE4242EAF0
:1021D0000161C9F8001019E0FEF7A0FF801B02287A
:1021E000A8D828684007F7D5ECE7FFE7286820F073
:1021F00001002860FEF792FF064604E0FEF78EFF1E
:10220000801B022896D828684007F7D42078C0069B
:1022100046D5D8F80000DFF89C92396800F0380005
:10222000A9F10409082812D0182805D101F00300EB
:10223000012800E0CEE00AD0E0690028286820D01C
:1022400040F080002860FEF769FF064615E0286828
:10225000C00502D5E06980287ED194F82010D9F815
:10226000002022F07C5242EA0161C9F8001017E018
:10227000FEF754FF801B0228A0D82868C005F7D5B8
:10228000EBE720F080002860FEF748FF064604E0F8
:10229000FEF744FF801B022890D82868C005F7D4B9
:1022A0002078000729D58348616964300029814678
:1022B000016811D041F001010160FEF72FFF0646D1
:1022C00005E000BFFEF72AFF801B022888D8D9F856
:1022D00000008007F6D510E021F001010160FEF753
:1022E0001DFF064605E000BFFEF718FF801B022811
:1022F00070D8D9F800008007F6D42078800623D55E
:10230000A0690028286810D040F480502860FEF7AB
:1023100005FF064605E000BFFEF700FF801B022810
:1023200058D828688004F7D50EE020F48050286043
:10233000FEF7F4FE064604E0FEF7F0FE801B0228DE
:1023400048D828688004F7D42078400751D5DFF8B2
:102350006891D9F8001000E015E141F48071C9F8E6
:102360000010FEF7DBFE064605E000BFFEF7D6FED6
:10237000801B64282ED8D9F80000C005F6D54D4E34
:10238000A068603601280AD008B1052813D030684B
:1023900020F001003060306820F0040002E0306876
:1023A00040F001003060A06841F2883A98B1FEF731
:1023B000B5FE81460AE0306840F004003060EEE788
:1023C000FEF7ACFEA0EB0901514503D83068800749
:1023D000F6D50EE072E0FEF7A1FE814606E000BFF2
:1023E000FEF79CFEA0EB0901514567D830688007D5
:1023F000F6D4606A00287CD0DFF8B8A0D8F80010C6
:102400000AF1200A4FF6F87B0AF10408C1F3C20171
:102410000329AAF104096DD00228286820F08070F1
:10242000286003D0FEF77AFE044681E0FEF776FED0
:10243000064604E0FEF772FE801B022875D8286865
:102440008001F7D4E26A40F2F331386854F8283F4B
:10245000884340EA021018433860217B4FF4FE0C99
:1024600022894FF0FE47208A4902267D521E401ED7
:10247000A1F5007189B2C2F308021143761E0CEA7D
:1024800000400143484607EA06621143CAF80010BB
:10249000D9F8001021F00101C9F80010D8F8003077
:1024A000266A23EA0B0343EAC601C8F80010D9F8EC
:1024B000001004E0104402580048025835E0A269B8
:1024C00021F00C011143C9F800100168E26921F004
:1024D000020111430160016841F48031016001682B
:1024E00041F400310160016841F48021016001681C
:1024F00001E06CE020E041F001010160286840F05B
:1025000080702860FEF70AFE044604E0FEF706FE2F
:10251000001B022809D828688001F7D557E000BFC2
:10252000FEF7FCFD001B022802D90320BDE8F09F46
:1025300028688001F4D44AE039680128DAF80000FC
:1025400021D0A26A01F0030393421CD1E26AC1F3D5
:1025500005118A4217D1216BC0F30802491E8A4235
:1025600011D1616BC0F34622491E91420BD1A16B80
:10257000C0F30642491E914205D1E16BC0F30660EB
:10258000491E814201D00120D0E7A16C4646D8F80F
:102590000000C0F3CC00814219D0D9F800004D46AC
:1025A00020F00100C9F80000FEF7B8FD4FEA00076F
:1025B000FEF7B4FDB842FBD0A26C306820EA0B00F5
:1025C00040EAC2003060286840F001002860002026
:1025D000ACE770477047704710B5040003D094F81B
:1025E0003D0010B107E0012010BD002084F83C0040
:1025F000204600F022F8022084F83D002068211DCA
:1026000000F086FB012084F8480084F83E0084F83E
:102610003F0084F8400084F8410084F8420084F8C8
:10262000430084F8440084F8450084F8460084F8A8
:10263000470084F83D00002010BD704790F83D1021
:10264000012901D0012070471A4A022180F83D106B
:102650000168CB6843F00103CB60006890421AD058
:10266000B0F1804F17D01449884214D013498842E2
:1026700011D0134988420ED0124988420BD012491A
:10268000884208D01149884205D01149884202D0B9
:102690001049884207D181680F4A1140062906D0A7
:1026A000B1F5803F03D0016841F0010101600020D5
:1026B0007047000000000140000400400008004096
:1026C000000C0040000401400018004000400140A0
:1026D00000E0004000E400400700010070472DE9E1
:1026E000F041044600680027C6680569A90713D5AC
:1026F000B10711D5FA1E0261012121772068806996
:102700008007204602D0FFF7E9FF04E000F08BF8D5
:10271000204600F089F82777680716D5700714D58A
:10272000226802206FF0040111612077206880691F
:1027300010F4407F204602D0FFF7D0FF04E000F005
:1027400072F8204600F070F82777280715D5300773
:1027500013D5226804206FF00801116120772068EA
:10276000C0698007204602D0FFF7B8FF04E000F000
:102770005AF8204600F058F82777E80616D5F006F4
:1027800014D5226808206FF01001116120772068AD
:10279000C06910F4407F204602D0FFF79FFF04E09D
:1027A00000F041F8204600F03FF82777E80708D00E
:1027B000F00706D021686FF001000861204600F0A4
:1027C00034F8280601D4A80408D5300606D52168B7
:1027D0006FF4025008612046FFF7FCFEE80508D5BB
:1027E000300606D521686FF4807008612046FFF737
:1027F000F0FE680608D5700606D521686FF0400027
:102800000861204600F018F8A8060AD5B00608D5D9
:1028100021686FF0200008612046BDE8F041FFF715
:10282000DABEBDE8F081704770470068B0F1804FB4
:1028300001D1FEF779BC70477047FEE707490648AB
:1028400010B508600846FEF713F8002803D0BDE86D
:102850001040FDF712BF10BD00440248980000244C
:102860001A4800212DE9F041DFF85CC00A2381609D
:102870000126C0F800C00324C1601D270174042292
:10288000417410258674C761C0E90543C0E9083466
:10289000C0E90A378663C0E90C31C0E90F14C0E90A
:1028A0001121C0E913214265C0E916150566C0E98A
:1028B0001912FEF79FF9002803D0BDE8F041FDF79B
:1028C000DCBEBDE8F081000000A00040C000002494
:1028D000044A0021044810B500F0EAFA03490860F0
:1028E00010BD000030460008712B000800000024D5
:1028F0000D4808B5016841F080010160016801F0F0
:1029000080010091016841F001010160016801F05E
:1029100001010091016841F008010160006800F0C8
:102920000800009008BD0000E0440258FEE7FEE702
:102930002DE9F047454D044689464FF0000A2868C6
:10294000C04380070AD0414E283E306820F08060A6
:102950003060FEF7E3FB0746B04608E00120BDE823
:10296000F08700BFFEF7DAFBC01B022867D8D8F853
:1029700000000001F6D4206829684FF4FE0721F416
:102980007C313E0241EA00302860207AA389B4F805
:1029900004C040022D4D2D495B1E227CACF1010C80
:1029A0001035091DA0F5007080B2521ECCF3080C42
:1029B00007EA034340EA0C00184306EA02621043A8
:1029C00028600868626920F0C000104308600A6847
:1029D000A06922F0200202430A60281D0A6822F042
:1029E00010020A6002684FF6F873E4699A4342EAFB
:1029F000C40202600868B9F1000F40F010020A60DA
:102A000011D00868B9F1010F11D040F4001008602E
:102A1000D8F80000444640F08060C8F80000FEF797
:102A20007DFB05460DE0086840F40020EFE740F428
:102A30008010ECE7FEF772FB401B022801D903204F
:102A40008DE720680001F5D5504688E728440258F4
:102A50002DE9F047454D044689464FF0000A2868A5
:102A6000C04380070AD0414E283E306820F0805095
:102A70003060FEF753FB0746B04608E00120BDE892
:102A8000F08700BFFEF74AFBC01B022867D8D8F8C2
:102A900000008000F6D4208829684FF4FE0721F05A
:102AA0007C713E0241EA00502860207AA389B4F884
:102AB00004C040022D4D2D495B1E227CACF1010C5F
:102AC0001835091DA0F5007080B2521ECCF3080C19
:102AD00007EA034340EA0C00184306EA0262104387
:102AE00028600868626920F44060104308600A6842
:102AF000A06922F4007202430A60281D0A6822F4C9
:102B000080720A6002684FF6F873E4699A4342EAF9
:102B1000C40202600868B9F1000F40F480720A60D4
:102B200011D00868B9F1010F11D040F08070086031
:102B3000D8F80000444640F08050C8F80000FEF786
:102B4000EDFA05460DE0086840F48000EFE740F438
:102B50000000ECE7FEF7E2FA401B022801D903204F
:102B60008DE720688000F5D5504688E72844025854
:102B7000012000F060F9FBE74FF0E02010B500699C
:102B800001F09CFB012803D0BDE8104001F0C0B863
:102B900010BD000070B59CB04C216846FDF7E9FC03
:102BA000202113A8FDF7E5FC0220FEF78BFB1E4851
:102BB000016821F4404101600168002401F44041B2
:102BC0001B910168C9438904FBD402200A90282381
:102BD0000990C20301210D910425CDE90012CDE930
:102BE0000B030C261294CDE90E50CDE91064684613
:102BF000FFF75CFA08B172B6FEE740201A9008238E
:102C00000501CDE9163013ABCDE918053F210322AC
:102C100083E8160013A81146FFF71CF8002801D01E
:102C200072B6FEE71CB070BD184802582D48F0B5CA
:102C30002D4A016841F470010160106800F00F0036
:102C4000072804D2106820F00F00C01D106027492B
:102C50000020264C10340B68254D43F001030B6017
:102C600020600B682B400B60136803F00F03072BE9
:102C700004D9136823F00F03DB1D13601B4C1D4A9E
:102C800018341D4B261D371D2060184C1B4D283451
:102C90003060261D3860371D23603B1D35601C1DCC
:102CA0003A60251D2E1D1860331D22602860326099
:102CB00018600B680D4A0D4C23F48023D4320B604E
:102CC000603420601068C0040BD4136843F2D20053
:102CD0000B4943F4805313600860106820F480505F
:102CE0001060F0BD88ED00E0002000520044025862
:102CF0007FEDF6EA80020101000202020000FF01FE
:102D0000004000520148FFF7EABC000060010024C7
:102D10002DE9F0472C4B4FF0804A2C4D0268984229
:102D20002B4E2C4F2C4C09D0504507D0A84205D033
:102D3000B04203D0B84201D0A04205D1D1F804C0BE
:102D400022F070024CEA0202DFF890C0DFF89080B7
:102D50009842DFF8909015D0504513D0A84211D07A
:102D6000B0420FD0B8420DD0A0420BD0604509D080
:102D7000404507D0484505D01B4DA84202D01B4D09
:102D8000A84203D1CD6822F440722A438E684D696F
:102D900022F08002C6620E682A439842866207D0FB
:102DA000A04205D0604503D0404501D0484501D13F
:102DB000096901630368012143F004030360416171
:102DC0000260BDE8F0870000000001400004004000
:102DD00000080040000C0040000401400040014099
:102DE000004401400048014000E0004000E4004091
:102DF000FEE7090700284FEA116104DB00F1E0203B
:102E000080F80014704700F00F0000F1E02080F817
:102E1000141D7047FEF790F9FFF7BCFEFFF768FD41
:102E2000FFF70CFDFFF71CFD00F014F8FFF750FD55
:102E300000F022F8FEE710B5EFF3058111B16FF055
:102E4000050404E04FF0000408B100F001FE204644
:102E500010BD0000EFF3058010B16FF00500704762
:102E60000449086810B14FF0FF30704701220A6032
:102E7000002070476800002410B5EFF3058010B102
:102E80006FF0050010BD08480168012902D04FF01D
:102E9000FF3010BD054A002182F8141D0221016097
:102EA00000F03EFE002010BD680000240BE000E0B2
:102EB0002DE9FF410B464FF00005EFF30581039527
:102EC00061BB58B34FF080064FF018014FF000047B
:102ED0004AB3176807B13C4697691FB139467F1E50
:102EE000382F02D21779FF0703D0002004B0BDE8C5
:102EF000F081576907B1BE08D2F808C0BCF1000FD5
:102F00000DD0D5685C2D18D312693AB137B18DE870
:102F100006103246214601F0A6F903900DE0D7686D
:102F20005FB912694AB903AACDE90012B2B22146CB
:102F300001F06CF9012800D003950398D6E7000052
:102F40002DE9F041134C0F460546E6682068001D48
:102F500000F048FC681C07D137B12168BDE8F0419A
:102F60000D48091D00F090BC20683544B54245600D
:102F7000216805D2A06B091DBDE8F04100F06CBCD2
:102F8000606B091D00F068FCA06A854200D2A56252
:102F9000BDE8F081180000249C0600242DE9F041D2
:102FA000054600F07DFC2D4C2D4FA068401CA06014
:102FB000206810B1606930B32BE02560A06801285B
:102FC00027D1002606EB860007EB800000F036FCD8
:102FD000761C382EF6D3234800F030FC21481430FC
:102FE00000F02CFC1F48283000F028FC1D483C3025
:102FF00000F024FC1B48503000F020FC19486063AE
:103000001430A06305E0E86A2168C96A814200D8EB
:103010002560606A401C60626864E86A21698842D1
:1030200000D9206100EB8000291D07EB800000F033
:103030002BFC00F055FC606900280CD02068E96A80
:10304000C06A884207D208494FF080500860BFF339
:103050004F8FBFF36F8FBDE8F08100001800002490
:10306000EC0100244C06002404ED00E038B500F02B
:1030700017FC104C2068C8B90F4800F0DFFB0E4861
:10308000143000F0DBFB0C490020E16014312161B9
:10309000A1F582730090A1F1B40210210A2000F082
:1030A0004DFE206010B105A100F09CFCBDE8384049
:1030B00000F016BC54000024A0070024546D725187
:1030C0000000000030B4026C0B46002A0BD0D0E99F
:1030D00002411144C160A14201D30168C160184698
:1030E00030BCFDF7C7B930BC70472DE9F041856BA6
:1030F0001746026C0446002682B1C7B1E068FDF7AE
:10310000B9F9E168206C2268091AE160914202D2A3
:10311000A168081AE060022F16D017E02068A8B94D
:10312000A06801F043F906460020A0600EE0606848
:10313000FDF7A0F9D4E90101226C104460608842D7
:1031400004D32068606001E005B16D1E6D1CA563AD
:103150003046BDE8F08110B5044690F8590058B1EA
:1031600001280CD002280FD0502080F31188BFF323
:103170004F8FBFF36F8FFEE7206B00F0C5FB20463B
:10318000BDE8104000F0C0BB10BD000011484FF476
:10319000705110B5420706D00E49C01D20F007003F
:1031A000411AC1F570510C4C002301440839A4F1B7
:1031B000180221F00701C4E900030C1A11604B60EA
:1031C0000B60C0E9001494604FF0004154605161FD
:1031D00010BD0000800E002484000024144E4FF027
:1031E0008058144CDFF85090A6F29C4712E000BFC4
:1031F00000F056FBF068C568281D00F0F3FAA068DF
:10320000401EA0606068401E606000F069FB2846B8
:10321000FFF7A1FF60680028EAD138680128F9D9D2
:10322000C9F80080BFF34F8FBFF36F8FF2E7000044
:10323000880600241800002404ED00E070B51D4647
:10324000049C51B1C4F80020C4E90F0101212046BB
:1032500000F0A8FD84F84C5070BD2460F4E72DE91F
:10326000F05F88469A4691001546DDE90B940A9E68
:10327000A5228346206BFDF774F9206B6FF00301E4
:1032800001EB8501084420F00707780707D050209C
:1032900080F31188BFF34F8FBFF36F8FFEE7B8F154
:1032A000000F4FF000050ED00020221818F8001073
:1032B00082F8341018F8001011B1401C1028F4D313
:1032C00084F8435001E084F83450382E00D3372678
:1032D000E662201DC4E9136500F0BBFA04F1180092
:1032E00000F0B7FA6565C6F13800A06184F858505F
:1032F0005246246159463846646200F05BFAB9F1DF
:10330000000F206001D0C9F80040BDE8F09F000028
:1033100030B5114900E011460A688242FBD34B6880
:103320005C18844203D14468084623444B604368D8
:103330001D18954209D1084C183C2468A24209D0B6
:1033400052681A4442600A6812680260814200D0E2
:10335000086030BD0460F9E78400002470B50D4DAD
:10336000914241604FF00004006106D88169D21A91
:103370008A4206D2011D286907E09A4203D2994287
:1033800001D3012403E0011DE86800F065FA20463E
:1033900070BD00005400002410B5044600F080FA0F
:1033A000A06B28B15FF0000400F09AFA204610BD2F
:1033B0000124F9E730B53C4D89B06BE00498002852
:1033C00006DA059ADDE9060190470498002861DBDA
:1033D000069C606910B1201D00F004FA03A800F0FB
:1033E000D5F8024604980A2854D2DFE800F0050513
:1033F000052D304705052D3094F8280040F00100D8
:1034000084F82800A06905990B4601442046FFF77F
:10341000A5FF50B3216A2046884794F8280040074A
:1034200038D50020009005980023A169421819465C
:10343000204601F0C3F8C0B9502080F31188BFF3D3
:103440004F8FBFF36F8FFEE794F828001EE094F8CB
:10345000280040F0010084F828000598A06128B1F8
:10346000811813462046FFF779FF13E0502080F3C0
:103470001188BFF34F8FBFF36F8FFEE794F82800DA
:10348000810703D4204600F03FFA03E020F001005A
:1034900084F828002868002204A900F0DDFD002837
:1034A0008CD109B030BD0000540000242DE9FC414E
:1034B0000F46054600F078FB01A800F067F80446C7
:1034C000019818B100F0E8FFBDE8FC81254EAFB1CE
:1034D00030690068D0B300273068291B3A4600F0F5
:1034E00095FA00F0D9FF0028EED11F494FF0805027
:1034F0000860BFF34F8FBFF36F8FE5E7A542EBD8AE
:1035000000F0CAFFF0682746C068C468201D00F0BC
:1035100069F994F82800410719D5A0692B463A4665
:1035200041192046FFF71AFFA8B100202A4603469A
:1035300001460090204601F041F860B9502080F328
:103540001188BFF34F8FBFF36F8FFEE707E020F0C6
:10355000010084F82800216A20468847B4E7012743
:10356000BAE700005400002404ED00E00648416B77
:10357000096829B1416BC968C968496881627047A7
:103580004FF0FF31FAE700001800002470B505463F
:1035900000F0A2FE064E0446B068844203D200F05A
:1035A00009F8012000E0002028602046B46070BDCA
:1035B00054000024F8B5194D20E0C068C4680668BE
:1035C000201D00F00FF9216A2046884794F8280052
:1035D000400713D5A0693044B04206D92461211DAB
:1035E0006060E86800F038F908E0002032460346E1
:1035F00001460090204600F0E1FF38B1E86801681C
:103600000029DAD12969C5E90310F8BD502080F3FB
:103610001188BFF34F8FBFF36F8FFEE75400002474
:1036200008484068401C4FF0500080F3118804D0D7
:10363000BFF34F8FBFF36F8FFEE7BFF34F8FBFF323
:103640006F8FFEE78C000024074CE068016841B1F1
:10365000C0680021D0F80000FFF728FFFFF7AAFE9E
:10366000F3E701210020F7E7540000242DE9F041A1
:10367000044600F015F994F9455004F1240609E0D8
:10368000606A48B1304600F0CFFE08B100F00EFA93
:103690006D1E6DB2002DF3DC4FF0FF3684F84560EF
:1036A00000F01EF900F0FCF894F9445004F1100702
:1036B00009E0206948B1384600F0B6FE08B100F0D4
:1036C000F5F96D1E6DB2002DF3DC84F84460BDE8A1
:1036D000F04100F005B900002DE9F0410027044653
:1036E00000F062FA324E306808B9FFF74FFD70699A
:1036F00004424ED1C4B3083460070ED004F0070072
:10370000C0F108000444600707D0502080F31188FE
:10371000BFF34F8FBFF36F8FFEE72CB37068844207
:1037200037D82348183001460D6801E028460D4679
:103730006968A14202D229680029F7D131688D4217
:1037400027D007682968016008376868011B1029BD
:103750000FD92819420708D0502080F31188BFF3F1
:103760004F8FBFF36F8FFEE713E041606C60FFF790
:10377000CFFD69687068401A7060B268904200D2EC
:10378000B060002072691143C5E90001F068401C77
:10379000F06000F081FE780707D0502080F3118898
:1037A000BFF34F8FBFF36F8FFEE73846BDE8F08160
:1037B0006C00002470B5041F094E231F4FF0807564
:1037C00021F0010125601C1F1960A0F120010B1FD1
:1037D000266044380A606FF002051D6070BD00006D
:1037E00021360008D0E9013201699A60D0E901234D
:1037F0005A604A68824201D182684A6000220261AE
:103800000868401E086008687047000010B5044C46
:103810008023046004F15C000860136010BD0000A8
:10382000C807002410B5044C4FF48073046004F101
:103830005C000860136010BD240A00244FF0FF33C1
:1038400000F108010022C0E901130260C1600161BA
:10385000704700210161704730B50B685A1C02D0D7
:1038600000F1080202E0026904E02246546825687B
:103870009D42FAD953684B6099608A605160086133
:103880000168491C016030BD42684A6093688B60E2
:1038900093685960916008610168491C0160704734
:1038A000502080F31188BFF34F8FBFF36F8F0A4909
:1038B0004868401C486001280CD10848006810F096
:1038C000FF0F07D0502080F31188BFF34F8FBFF355
:1038D0006F8FFEE7704700008C00002404ED00E0CD
:1038E0000849486828B1401E486001D180F311881A
:1038F0007047502080F31188BFF34F8FBFF36F8F55
:10390000FEE700008C00002470B500282AD0164D78
:10391000A0F1080461686869014207D1502080F372
:103920001188BFF34F8FBFF36F8FFEE722683AB164
:10393000502080F31188BFF34F8FBFF36F8FFEE7E6
:103940008143616000F030F960686968084468602C
:103950002046FFF7DDFC2869401C2861BDE8704067
:1039600000F09ABD70BD00006C0000244FF0E02014
:10397000002101614FF47A728161072303490968CC
:10398000B1FBF2F1491E4161036170471000002450
:1039900010B5FCF747FD114910280ED300F1E020C7
:1039A0000A7890F8F003904207D2502080F31188F3
:1039B000BFF34F8FBFF36F8FFEE709488968006838
:1039C00000F4E060884207D9502080F31188BFF3EB
:1039D0004F8FBFF36F8FFEE710BD00008C000024F7
:1039E0000CED00E0084B5FF0000210B553F83240D8
:1039F0001CB1521C082AF9D310BD03EBC20443F8D2
:103A00003210606010BD0000AC01002470B5154696
:103A10000E460446FFF744FF94F944100020491C69
:103A200001D184F8440094F94510491C01D184F86F
:103A30004500FFF755FFA06B28B904F124002A4682
:103A4000314600F051F82046BDE87040FFF70EBE49
:103A5000020010B514D00F48006B38B1502080F32D
:103A60001188BFF34F8FBFF36F8FFEE700F09CF814
:103A700000211046FFF764FA00F00EFD002807D180
:103A800005494FF080500860BFF34F8FBFF36F8F31
:103A900010BD00001800002404ED00E002490A6A8D
:103AA0000260C96841607047180000240149012084
:103AB000C86170471800002410B50C4650B1094980
:103AC00009681831FFF7C8FE2046BDE81040012103
:103AD000FFF736BA502080F31188BFF34F8FBFF342
:103AE0006F8FFEE71800002470B514460D4668B1CC
:103AF0000A4909681831FFF7C7FE0CB14FF0FF35CE
:103B000021462846BDE87040FFF71ABA502080F3DE
:103B10001188BFF34F8FBFF36F8FFEE718000024AB
:103B200030B587B0002405AA04A9039403A804941F
:103B3000FFF76CFEDDE9030100940023CDE90110DD
:103B4000174815A1059A00F08EFB164D0028E86273
:103B50001FD000F003FD012809D0401C19D15020CE
:103B600080F31188BFF34F8FBFF36F8FFEE75020B4
:103B700080F31188BFF34F8FBFF36F8F01214FF098
:103B8000FF30A8626961EC6007B0BDE8304000F02A
:103B900045B807B030BD000049444C450000000066
:103BA000DD310008180000240248016B491C016344
:103BB0007047000018000024164810B5016B11B1C1
:103BC0000121C16110BD0021C161134A016901E0F9
:103BD000B9B1491E01EB810352F82330002BF7D015
:103BE00001EB810302EB830202F1080453685B6876
:103BF0005360A34201D15B685360DA6802600161DF
:103C000010BD502080F31188BFF34F8FBFF36F8F2B
:103C1000FEE7000018000024EC01002437481CB522
:103C2000374902688A4207D1502080F31188BFF3D8
:103C30004F8FBFF36F8FFEE731490068491E8842FE
:103C400007D1502080F31188BFF34F8FBFF36F8FE0
:103C5000FEE72C49FF200A780192087008788DF859
:103C600000009DF800209DF8000002F0F002824262
:103C700007D0502080F31188BFF34F8FBFF36F8FB1
:103C8000FEE79DF8002007201F4C02F05002227032
:103C9000A06005E09DF8002052008DF80020401E35
:103CA0009DF800201206F5D40328A06007D050200C
:103CB00080F31188BFF34F8FBFF36F8FFEE74FF490
:103CC0004070A060019808700C482030016841F4F1
:103CD00070010160016841F070410160FFF746FE2C
:103CE00000206060FCF766FB0848016841F0404135
:103CF0000160FCF74BFB00201CBD000000ED00E064
:103D000071C20F4100E400E08C00002434EF00E0B9
:103D1000502010B580F31188BFF34F8FBFF36F8F22
:103D200000F0E0FA18B104494FF08050086000201C
:103D300080F3118810BD000004ED00E0F8B5069D89
:103D400018B153B1CAB181B120E0502080F311887D
:103D5000BFF34F8FBFF36F8FFEE7502080F31188C2
:103D6000BFF34F8FBFF36F8FFEE7502080F31188B2
:103D7000BFF34F8FBFF36F8FFEE739B1502080F351
:103D80001188BFF34F8FBFF36F8FFEE750241C469F
:103D9000012683F8466000932B46FFF74FFA204632
:103DA000F8BD00002DE9F04704008A4629D0FFF74E
:103DB00077FD21680025D4E90F23D4F840C004F131
:103DC000100810460E46401E4FF0FF3902FB03124A
:103DD00000FB0C10BAF1000FA563666084F84490F4
:103DE00084F84590C4E9022013D04046FFF726FD31
:103DF00004F12400FFF722FDFFF772FD0120BDE86A
:103E0000F087502080F31188BFF34F8FBFF36F8F7F
:103E1000FEE720690028EFD0404600F005FB0028AF
:103E2000EAD004494FF080500860BFF34F8FBFF3D2
:103E30006F8FE1E704ED00E02DE9FF4704001D4628
:103E400082B08A464FF0000803D0BAF1000F08D0C4
:103E500011E0502080F31188BFF34F8FBFF36F8FB5
:103E6000FEE7206C38B1502080F31188BFF34F8FEC
:103E7000BFF36F8FFEE7022D0AD1E06B012807D058
:103E8000502080F31188BFF34F8FBFF36F8FFEE791
:103E900000F014FA3F4F4FF080564FF0000948B938
:103EA000049838B1502080F31188BFF34F8FBFF3CF
:103EB0006F8FFEE7FFF7F4FCA06BE16B884207D33E
:103EC000022D05D00498D0B1B8F1000F1AD01EE031
:103ED0002A4651462046FFF708F9616A19B104F1F4
:103EE000240000F0A1FA20B13E60BFF34F8FBFF372
:103EF0006F8FFFF7F5FC012006B0BDE8F087FFF7F4
:103F0000EFFC22E06846FFF7C9FD4FF00108FFF71C
:103F1000E7FCFFF749FEFFF7C3FC94F94400401C9F
:103F200001D184F8449094F94500401C01D184F8F3
:103F30004590FFF7D5FC04A9684600F02BF930B195
:103F40002046FFF793FB00F0A7FA0020D4E7FFF725
:103F5000A7FCA06BE16B884213D1FFF7C1FC049969
:103F600004F11000FFF7A8FD2046FFF77FFB00F0EB
:103F700093FA00289ED13E60BFF34F8FBFF36F8F3F
:103F800098E7FFF7ADFC2046FFF770FB00F084FADE
:103F900090E7000004ED00E02DE9F04704001F4623
:103FA0009046894603D0B9F1000F08D011E05020A7
:103FB00080F31188BFF34F8FBFF36F8FFEE7206C44
:103FC00038B1502080F31188BFF34F8FBFF36F8F4C
:103FD000FEE7022F0AD1E06B012807D0502080F3C2
:103FE0001188BFF34F8FBFF36F8FFEE7FFF7D0FC51
:103FF0005020EFF3118680F31188BFF34F8FBFF38A
:104000006F8FA06BE16B884206D3022F04D0002093
:1040100086F31188BDE8F08794F94550A06B3A46C5
:1040200049462046FFF761F8681C04D06D1C84F8EF
:1040300045500120ECE7606A0028FAD004F1240022
:1040400000F0F2F90028F4D0B8F1000FF1D001210E
:10405000C8F80010EDE700002DE9F74704008A4694
:1040600083B04FF0000603D0BAF1000F08D011E082
:10407000502080F31188BFF34F8FBFF36F8FFEE79F
:10408000206C38B1502080F31188BFF34F8FBFF3FD
:104090006F8FFEE700F012F9DFF8F4804FF08057E1
:1040A0004FF0000948B9059838B1502080F31188C5
:1040B000BFF34F8FBFF36F8FFEE7FFF7F1FBA56BE9
:1040C000C5B151462046FEF7FDFF6D1EA563206970
:1040D00050B104F1100000F0A7F928B1C8F8007041
:1040E000BFF34F8FBFF36F8FFFF7FAFB012006B0CE
:1040F000BDE8F087059808B11EB106E0FFF7F0FBB8
:1041000027E06846FFF7CAFC0126FFF7E9FBFFF747
:104110004BFDFFF7C5FB94F94400401C01D184F826
:10412000449094F94500401C01D184F84590FFF774
:10413000D7FB05A9684600F02DF8002820460AD0D4
:10414000FFF794FA00F0A8F92046FFF725F90028B8
:10415000B3D00020CBE7FFF71FF990B1059904F128
:104160002400FFF7A9FC2046FFF780FA00F094F93D
:104170000028A2D1C8F80070BFF34F8FBFF36F8F34
:104180009BE72046FFF772FA00F086F995E70000FA
:1041900004ED00E02DE9F04105000C4612D0CCB151
:1041A000FFF77EFB184E2068F268471C6B68A2EB95
:1041B000030117D02F68366AB74215D0934213D83F
:1041C00001251CE0502080F31188BFF34F8FBFF30F
:1041D0006F8FFEE7502080F31188BFF34F8FBFF33E
:1041E0006F8FFEE700250AE0884205D9401A20605B
:1041F0002846FFF753FCF5E7002020600125FFF774
:104200006FFB2846BDE8F081180000242DE9FF5F10
:10421000994616468A4683469000DDE90E87FFF7E9
:104220005BFA05001CD05C20FFF756FA040014D09E
:104230000020256384F859004B46CDE90087CDE97D
:104240000240324651465846FFF709F82046FEF72D
:10425000A5FE012004B0BDE8F09F2846FFF754FBFF
:104260004FF0FF30F6E7F0B585B0DDE90B740A9D3D
:10427000A7B1DCB15C262763022684F859600027C9
:1042800003970DF1100C0095CDE901C4FEF7E7FF8F
:104290002046FEF783FE049805B0F0BD502080F361
:1042A0001188BFF34F8FBFF36F8FFEE7502080F36D
:1042B0001188BFF34F8FBFF36F8FFEE70548416949
:1042C00019B1006B18B1002070470120704702201F
:1042D00070470000180000240148C06870470000C3
:1042E000180000242DE9F0412E4C206B002728B146
:1042F000A069401CA0613846BDE8F081E668761CE4
:10430000E66013D1606B006838B1502080F31188EB
:10431000BFF34F8FBFF36F8FFEE7606BA16B6163DD
:10432000A063206A401C2062FFF720F9DFF8788044
:10433000A06A864209D3606B0068A0B1606BC06858
:10434000C5686868864211D2A0622068C06A00EB26
:10435000800158F82100012800D90127E0690028D0
:10436000C9D00127C7E74FF0FF30EDE7281DFFF761
:1043700039FAA86A18B105F11800FFF733FAE86AAC
:104380002169884200D9206100EB800108EB81009F
:10439000291DFFF779FA2068E96AC06A8142CAD309
:1043A0000127C8E718000024EC01002470B504467A
:1043B0004FF0000190B31A4D2868844207D0502076
:1043C00080F31188BFF34F8FBFF36F8FFEE7206D2F
:1043D00038B1E36C401EE26A20659A421ED040B1BB
:1043E0001CE0502080F31188BFF34F8FBFF36F8F15
:1043F000FEE7201DFFF7F6F9E06CC0F13801A1617E
:10440000E0622969884200D9286100EB80000549F3
:1044100001EB8000211DFFF737FA0121084670BD2E
:1044200018000024EC01002470B5C068C46854B1C1
:1044300004F118000646FFF7D5F9144D286B50B16A
:104440001348314615E0502080F31188BFF34F8F99
:10445000BFF36F8FFEE7201DFFF7C4F9E06A2969FB
:10446000884200D9286100EB80000A4901EB8000F6
:10447000211DFFF709FAE06A2968C96A884203D951
:104480000121E961084670BD002070BD18000024BC
:1044900074060024EC0100242DE9F0472C4D286B14
:1044A0000024274638B1FFF7FBF9286B401E28632C
:1044B000286B40B147E0502080F31188BFF34F8F45
:1044C000BFF36F8FFEE7234E0120A968D9B3A6F58D
:1044D000916980463068E0B1F068C46804F1180062
:1044E000FFF780F9201DFFF77DF9E06A296988420E
:1044F00000D9286100EB800109EB8100211DFFF745
:10450000C3F9E06A2968C96A8842E3D3C5F81C8008
:10451000E0E70CB1FFF72AF8AC694CB14FEA0806A6
:10452000FFF7E0FE00B1EE61641EF9D10020A86142
:10453000E86940B1084901274FF080500860BFF397
:104540004F8FBFF36F8FFFF7CBF93846BDE8F08789
:10455000180000247406002404ED00E010B586B0B5
:10456000FEF784FD114C2068B8B10020039005AA25
:10457000049004A903A8FFF755F9DDE903210220FF
:1045800000238DE807000C4809A1059AFFF76BFE90
:10459000606010B106B0012010BD502080F311887A
:1045A000BFF34F8FBFF36F8FFEE70000540000246E
:1045B000546D722053766300493600082DE9FF419F
:1045C0001E46134602004FF000000A9D16D0144C00
:1045D0002768002F0FD006290292CDE9001317DAC1
:1045E000FFF76CFE02284FF000030FD00022206876
:1045F0006946FFF721FC04B0BDE8F081502080F34C
:104600001188BFF34F8FBFF36F8FFEE72A46EEE7A7
:104610000023324669463846FFF7BEFCEBE7000050
:10462000540000244FF04070E1EE100A7047000083
:10463000C04600080000000000000000000000006C
:104640000000000000020000180000000000000050
:10465000000000000001020304050607080C101406
:1046600018203040000000000000000000000000A2
:104670000000000000000000010000000200000037
:10468000030000000400000000000000050000001E
:104690000000000000000000000000000600000014
:1046A0000000000000000000000000000700000003
:1046B00000000000010203040102030406070809C8
:1046C00064656661756C745461736B00EC46000838
:1046D0000000002498000000080300088447000838
:1046E0009800002448500000240300080000000047
:1046F0000100000010000000000000000090D00346
:104700000090D00300000000000000000000000046
:104710000000000000000000000000000000000099
:104720000000000000000000000000000000000089
:104730000000000000000000000000000000000079
:104740000000000000000000000000000000000069
:104750000000000000000000000000000000000059
:104760000000000000000000000000000000000049
:10477000000000000000000000000000AAAAAAAA91
:044780000000000035
:04000005080002CD20
:00000001FF
