:020000040800F2
:10000000C04800242D0400082F2B0008412A0008B6
:100010002D2B0008EF050008D52F00080000000078
:100020000000000000000000000000006D03000858
:100030003106000800000000C9030008612D000817
:100040004B0400084B0400084B0400084B04000854
:100050004B0400084B0400084B0400084B04000844
:100060004B0400084B0400084B0400084B04000834
:100070004B0400084B0400084B0400084B04000824
:100080004B0400084B0400084B0400085506000808
:100090004B0400084B0400084B0400084B04000804
:1000A0004B0400084B0400084B0400084B040008F4
:1000B000ED2E00084B0400084B0400084B04000818
:1000C0004B0400084B0400084B0400084B040008D4
:1000D0004B0400084B0400084B0400084B040008C4
:1000E0004B0400084B040008000000004B0400080B
:1000F0004B0400084B0400084B0400084B040008A4
:100100004B0400084B0400084B0400084B04000893
:100110004B0400084B0400084B0400084B04000883
:100120004B0400084B0400084B0400084B04000873
:100130004B0400084B0400084B0400084B04000863
:1001400000000000000000000000000000000000AF
:100150004B0400084B0400084B0400084B04000843
:100160004B0400084B0400084B0400084B04000833
:100170004B0400084B0400084B040008000000007A
:100180004B0400084B0400084B0400084B04000813
:100190004B0400084B0400084B0400084B04000803
:1001A0004B0400084B0400084B040008000000004A
:1001B0004B0400084B0400084B0400084B040008E3
:1001C0004B0400084B040008000000000000000081
:1001D00000000000000000004B04000800000000C8
:1001E000000000000000000000000000000000000F
:1001F00000000000000000004B0400084B04000851
:100200004B0400084B040008000000004B040008E9
:100210004B0400084B0400084B0400084B04000882
:100220004B040008000000004B0400080000000020
:100230004B0400084B040008000000004B040008B9
:100240004B0400084B0400084B0400084B04000852
:100250004B0400084B0400084B0400084B04000842
:100260004B0400084B0400084B0400084B04000832
:100270004B0400084B0400084B0400080000000079
:100280004B0400084B0400084B0400084B04000812
:10029000000000004B0400084B04000800000000B0
:1002A000000000004B0400084B0400084B04000849
:1002B0004B0400084B0400084B0400084B040008E2
:1002C0004B0400084B0400084B04000800F002F83F
:1002D00000F03CF80AA090E8000C82448344AAF1A4
:1002E0000107DA4501D100F031F8AFF2090EBAE8A2
:1002F0000F0013F0010F18BFFB1A43F0010318475A
:100300004C3700006C370000103A24BF78C878C121
:10031000FAD8520724BF30C830C144BF04680C600B
:10032000704700000023002400250026103A28BF53
:1003300078C1FBD8520728BF30C148BF0B60704757
:100340001FB503F02FFB1FBD10B510BD00F018F94D
:100350001146FFF7F5FF02F04FFE00F036F903B447
:10036000FFF7F2FF03BC00F03BF900002C4B1968CB
:100370000868B0E8F04F80F30988BFF36F8F4FF043
:10038000000080F3118870470000000008480068F2
:10039000006880F308884FF0000080F3148862B68C
:1003A00061B6BFF34F8FBFF36F8F00DF00BF00BF99
:1003B00008ED00E0DFF80C00016841F47001016015
:1003C000704700BF88ED00E0EFF30980BFF36F8F47
:1003D000134B1A681EF0100F08BF20ED108A20E999
:1003E000F04F106009B44FF0500080F31188BFF354
:1003F0004F8FBFF36F8F03F061F94FF0000080F370
:10040000118809BC19680868B0E8F04F1EF0100F99
:1004100008BFB0EC108A80F30988BFF36F8F704774
:1004200018000024EFF30580704700000A48804759
:100430000A4880470A480047FEE7FEE7FEE7FEE776
:10044000FEE7FEE7FEE7FEE7FEE7FEE705480649B2
:10045000064A074B7047000039060008152E0008B1
:10046000CD020008C0420024C0480024C04400243B
:10047000C044002410B5203AC0F00B80B1E81850F9
:10048000203AA0E81850B1E81850A0E81850BFF47E
:10049000F5AF5FEA027C24BFB1E81850A0E818501D
:1004A00044BF18C918C0BDE810405FEA827C24BF71
:1004B00051F8043B40F8043B08BF7047D20728BFFF
:1004C00031F8023B48BF11F8012B28BF20F8023B4E
:1004D00048BF00F8012B704702F0FF0343EA0322F4
:1004E00042EA024200F02CB84FF0000200B5134679
:1004F00094469646203922BFA0E80C50A0E80C5044
:10050000B1F12001BFF4F7AF090728BFA0E80C50F4
:1005100048BF0CC05DF804EB890028BF40F8042BED
:1005200008BF704748BF20F8022B11F0804F18BF5A
:1005300000F8012B70477047704770474FF000027A
:100540000429C0F0128010F0030C3FF4CFAFCCF1BF
:10055000040CBCF1020F18BF00F8012BA8BF20F853
:10056000022BA1EB0C01FFF7C1BF5FEAC17C24BFE6
:1005700000F8012B00F8012B48BF00F8012B704751
:10058000754600F029F8AE4605006946534620F04E
:100590000700854618B020B5FFF758FFBDE820409A
:1005A0004FF000064FF000074FF000084FF0000B2F
:1005B00021F00701AC46ACE8C009ACE8C009ACE8E2
:1005C000C009ACE8C0098D4670470446AFF300800F
:1005D0002046FFF7C4FE0000004870475C4200243C
:1005E00001491820ABBEFEE7260002007047FEE777
:1005F000816008214161FF2180F8741080F8751036
:1006000080F8761080F8771080F8781080F87910EC
:1006100080F87A10FC2180F87B1000F06AB901F5AF
:10062000007181600421416180ED1D0A00F061B913
:10063000704772B6FEE700000548016841F002010C
:1006400001600348083801688904FCD57047000040
:100650000C480258014800F02FBA0000AC000024FA
:1006600030B50368426B53F8844F4FF6FC718C43EE
:1006700044EA82041C60036853F8844F058F24F415
:100680007F0444EA05441C60836B1A440368D3F872
:1006900088408C4344EA8204C3F88840036853F8D6
:1006A000884F858F24F4FE0444EA05441C60C36B24
:1006B00002EB43020368D3F8A0408C4344EA82046F
:1006C000C3F8A040036853F8A04FB0F8405024F49A
:1006D000FE0444EA05441C60D0E9103403FB042204
:1006E0000368D3F8B0408C4344EA8204C3F8B040B6
:1006F000036853F8B04FB0F8485024F4FE0444EABD
:1007000005441C60D0E9123403FB04220368D3F8CB
:10071000AC408C4344EA8204C3F8AC40D0E91434C2
:1007200003FB04220368D3F8F0408C4344EA8204BC
:10073000C3F8F040036853F8F04FB0F8585024F471
:100740007C1444EA05441C60836D02EB4303026899
:10075000D2F8C0408C4344EA8301C2F8C01001685B
:1007600051F8C02FB0F85C3022F47C1242EA034208
:100770000A60016851F8C02F90F8603022F07C5276
:1007800042EA03620A60416B234A02EB8101C166BF
:10079000826B01EB82020267C36B02EBC30242670A
:1007A000D0E91034634302EB83028267D0E912344C
:1007B000634302EB8302C267D0E91434634302EB64
:1007C0008302C0F88020836D02EBC302C0F884204E
:1007D000C46D836E5C4302EB8402C0F88820046E13
:1007E0005C430E4B02EB8402C0F890209A420AD977
:1007F000D0F89C1041F02001C0F89C10032180F833
:100800009810012030BD002200E004C1D0F89030E3
:100810008B42FAD8002030BD00AC0040FCD3004031
:10082000F0B5D1E901650C692C430D68CEB145F0F6
:1008300080452C4391F82070D1E9066535434E6917
:1008400046EA076635438E8945EA0645D0F8846056
:10085000806E584306EB80030020E3E80245094C14
:100860000AE044EA8544E5E71618155C001DD6F851
:10087000016045EA062520C3CD68655D8542F3D851
:10088000F0BD0000D439000800B589B00022009204
:100890000B7801934B6802938B680393CB680493A6
:1008A0000969CDE9051207926946006800F0A8F8C9
:1008B00009B000BDF8B515460E460446006800F0C4
:1008C000FFFB31462046FFF7DFFF002000900222A9
:1008D00020680023114600F0D2F82946204600F097
:1008E0001EF8206800F0D3FB002801D00A202071F8
:1008F000F8BD10B504460079032801D001280DD1B8
:1009000004202071206804F1740204F1080100F051
:1009100043F808B1072000E00320207110BD082231
:1009200081600021C160C0E904128161C16101627E
:100930004162816201210171704770B5040004D0E9
:1009400094F82100002510B106E0012070BD20467A
:1009500084F8205000F00CF8656201206560A56005
:10096000E5602561656184F82100002070BD00000C
:1009700008B500680649884208D10648016841F474
:1009800000310160006800F40030009008BD0000F4
:1009900000440248DC44025870B5044690F89800C0
:1009A000022804D0D4F89C0040F008000DE0206834
:1009B000D0F8C03013F07C5F0BD0D0F8C4309B026D
:1009C0000CD5D4F89C0040F40070C4F89C000120C1
:1009D00070BDD4F89C0040F02000F6E7D0F8C400C9
:1009E000C0F3044520462B46FFF71AFF216801207B
:1009F000A840C1F8D000C4F89400002070BD704732
:100A000010B590F89820012A09D0022A07D0D0F812
:100A10009C1041F00201C0F89C10012010BD0B6831
:100A2000CA6883B10B69072A43EA427325D00C7A5E
:100A30004A6942EA84724968006F00EBC100C0E96C
:100A40000032002010BD072A0DD00C7AD2064B6967
:100A500043EA84730C8A42EA0442C06E4968134335
:100A600040F82130EDE70B8A4FF060548A6942EA82
:100A70000343CA6944EA0222EFE78A69DBE730B53B
:100A800090F89850039C012D07D0D0F89C1041F0AD
:100A90000401C0F89C10012030BD0068090141EA42
:100AA000820141EA43012143C0F88010002030BD9B
:100AB00070477047704700002DE9FE4FB34F044662
:100AC00038688007391D096800EA817B2068016D5C
:100AD000426D01F470410A400292016D426D01F0D5
:100AE0000F0102EA010A016D426D01F0F0010A40B6
:100AF0000192016D426D01F0715102EA0108016D30
:100B0000426D01F060710A400092416D056D4FF039
:100B10000009CE43F10509D4E943C90506D4B91546
:100B20000165C7F800902046FFF7C4FF700510D498
:100B3000E84340050DD42068D0F8DC20D0F8E4105C
:100B400011404FF480620265C7F80090204600F023
:100B5000FBFABBF1000F0BD08D490BEA01002168B5
:100B600008654FEA9B70386059462046FFF747FFFB
:100B7000029850B186490840216808650298800FA4
:100B800038600299204600F0E1FABAF1000F0BD06C
:100B90007F490AEA0100216808654FEA9A703860C7
:100BA0005146204600F071FA019850B1784908404A
:100BB000216808650198800F38600199204600F08F
:100BC00065FA30050BD4E843000508D421684FF4DA
:100BD00000600865C7F80090204600F0B8FAB0053C
:100BE00010D4E84380050DD42068D0F8D820D0F880
:100BF000E01011404FF400720265C7F800902046E3
:100C000000F0A3FA30030BD4E843000308D42168B2
:100C10004FF400200865C7F80090204600F034FA31
:100C2000F0030BD4E843C00308D421684FF48030AC
:100C30000865C7F80090204600F085FA70030BD4D1
:100C4000E843400308D421684FF480200865C7F8C2
:100C50000090204600F076FAB0030ED4E8438003FB
:100C60000BD421684FF400300865C7F80090D4F821
:100C70009C0040F08000C4F89C00009850B14449AA
:100C80000840216808650098800F38600099204668
:100C9000FFF70FFFB8F1000F0DD03D4908EA010042
:100CA000216808654FEA98703860D4F89C0040EAE3
:100CB0000800C4F89C003749206888425CD160680D
:100CC0008168890758D0016A01F00F02416A11401A
:100CD000026A476A02F0300207EA0207026A436AC0
:100CE00002F4C07203EA0208026A456A02F4FC4296
:100CF00005EA0205026A466A02F4F022D0F824905E
:100D000006EA0206D0F820A003D00162204600F0D7
:100D100016FA2FB1606807623946204600F011FAD2
:100D20006FEA090040060ED46FEA0A0040060AD4B2
:100D30006068C16BC26B090C4023036202F03F0282
:100D4000204600F0FDF95FEA080005D061680862FE
:100D50004146204600F0F2F935B160680562D4F8EA
:100D60009C002843C4F89C0036B160680662D4F841
:100D70009C003043C4F89C00D4F89C00002802D0AA
:100D80002046FFF795FEBDE8FE8F000010A800404A
:100D9000FFFFCF3F00A000402DE9F04194B08D4906
:100DA0004C2204466846FFF765FB64B18A4E206812
:100DB000B04202D100F58070606094F898004FF066
:100DC000000820B108E0012014B0BDE8F081204601
:100DD00084F8998000F002F92068816921F01001FF
:100DE000816100F09BFA0327054604E000F096FAC3
:100DF000401B0A2811D8206880690007F6D42068B3
:100E0000816941F00101816100F088FA05460DE039
:100E100000F084FA401B0A2808D9D4F89C0040F05E
:100E20000100C4F89C0084F89870CCE720688069C1
:100E3000C007EDD02068816941F002018161207C0A
:100E400001282068816937D041F040018161607CD0
:100E500001282068816932D021F480418161A07C21
:100E60000128206881692DD041F48051816120687A
:100E70008169A26821F44071114381612068816910
:100E800021F0A40181612068016921F01001016154
:100E9000E068012819D010B302281BD020688169AE
:100EA00041F0800181612068016941F01001016118
:100EB000E06803280ED012E021F04001C6E741F4BB
:100EC0008041CBE721F48051D0E72068816941F06F
:100ED000040103E02068816941F020018161207EE6
:100EE0006FF0FF02E169A38A400602EB0121A0F145
:100EF00000700843216A491E0843110201EB0343B5
:100F000018432368D861A068B0F5407F10D1D4E9B8
:100F10000A03401E02EB03221043226B0B1303EB68
:100F200002121043A28C01EB024108432168C86001
:100F3000206E30B12068D0F8C010626E1143C0F846
:100F4000C010D4E91701C842694609D0206850F89A
:100F5000C82FA36E22F0070251F823301A43026013
:100F6000206C48B1206850F8BC2F636C22F0070257
:100F700051F823301A430260A06C50B1206850F839
:100F8000BC2FE36C22F0700251F8233042EA0312C6
:100F90000260206D50B1206850F8BC2F636D22F4C0
:100FA000E06251F8231042EA012101602068B0425A
:100FB00004D16068816821F003018160C4F89480E5
:100FC000C4F89C80012084F898002046FFF748FB75
:100FD000FAE60000E439000800A0004030B5B5B0E2
:100FE000044614212EA8FFF77FFAB8216846FFF7C0
:100FF0007BFA2249206888423DD100204FF400410D
:1010000002240494CDE900101420059400250694D0
:10101000CDE90240C020CDE90705880309951B9062
:10102000684600F077FA08B1FFF703FB144801683F
:1010300041F480710160006800F4807033901048C2
:101040000C38016841F00801016000682EA900F029
:1010500008003390032081E831000920CDE93150A8
:10106000084800F075F800220521132000F0F8F977
:10107000132000F0E7F935B030BD000000A00040BB
:10108000EC440258000C025870477047704790F8C3
:101090009810012907D0D0F89C1041F00401C0F845
:1010A0009C1001207047022180F8981001688A691D
:1010B00022F001028A610021C0F89C1008467047A6
:1010C00010B590F898200021022A06D0D0F89C1084
:1010D00041F00801C0F89C1011E00268936943F0E8
:1010E00001039361026803230CE0322909D9D0F887
:1010F0009C1041F00101C0F89C1080F8983001204C
:1011000010BD491C9469E407EFD09469002124F0D4
:1011100010049461026802E03229E8D8491C9469FD
:101120002407F9D4916941F0020191610021C0F8CE
:101130009410012180F89810002010BD704770476E
:1011400070477047704770477047704770477047E7
:101150002DE9F84F664C00224FF0B04A4FF0010BDA
:101160004FF003084FF00F09BBE00BFA02F63340D3
:1011700073D00D7905F00305012D01D0022D15D195
:101180008768550008FA05FC27EA0C07D1F80CC05F
:101190000CFA05FC4CEA070CC0F808C04568B543DA
:1011A0000E79C6F3001696402E4346600D79ED4346
:1011B000AD0708D0C668550008FA05F7BE438F682A
:1011C000AF403743C7600D7905F00305022D11D1FB
:1011D000D50800EB85073E6A5507ED0E09FA05FCB8
:1011E00026EA0C06D1F810C00CFA05FC4CEA060CF5
:1011F000C7F820C00668550008FA05F7BE430F7906
:1012000007F00307AF40374307604D6815F4403FD0
:1012100066D0384D2E6846F002062E602D6822F00A
:10122000030606F1B04605F002050095D6F80874ED
:1012300095074FEA157C09FA0CF5AF432E4DA842ED
:1012400001D1002529E02D4DA84201D1012524E03E
:101250002B4DA84202D102251FE041E0294DA842B2
:1012600001D1032519E0284DA84201D1042514E03D
:10127000264DA84201D105250FE0254DA84201D1F8
:1012800006250AE0234DA84201D1072505E0224D9D
:10129000A84201D1092500E00A2505FA0CF53D43D5
:1012A000C6F80854DAF8005056464F689D43FF02CE
:1012B00000D51D43356075684F689D43BF0200D55A
:1012C0001D43756065684E689D43B60300D51D4398
:1012D000656025684E689D43F60300D51D43256073
:1012E000521C0B6833FA02F57FF43FAFBDE8F88F6C
:1012F00080000058F44402580000025800040258CC
:1013000000080258000C025800100258001402583D
:1013100000180258001C0258002402580148806836
:1013200070470000040000240248816802781144DC
:101330008160704704000024032010B500F0B0F86D
:1013400000F022FF0F4A11681268C1F303230E490F
:10135000CB5C03F01F03D84002F00F02895C0B4AFC
:1013600001F01F0120FA01F11160094908600F2006
:1013700000F010F808B1012010BD00F051F8002075
:1013800010BD000018440258303A00081400002430
:101390001000002410B5102804468AB02DD2002277
:1013A00001461C2000F05CF81C2000F04BF81848A7
:1013B00004601848016841F001010160006809A952
:1013C00000F001000890684600F07AFE0598B8B178
:1013D00000F0C8FE400010494FF08042B0FBF1F130
:1013E0000E48026040F2E732491E41600021C0E928
:1013F0000321816001F0F1F928B101200AB010BD8C
:1014000000F0B0FEE7E7054801F01AFAF6E7000041
:1014100008000024E844025840420F004C01002418
:10142000074882B0016841F00201016000680022B3
:101430000F2100F002000090901E02B000F010B8E2
:10144000F4440258002809DB012100F01F029140FA
:101450004009800000F1E020C0F800117047000052
:101460000E4BF0B41B68C3F30223C3F10704042C32
:1014700000D904241D1D072D01D2002300E0DB1E2E
:10148000012606FA04F56D1E0D409D409E40761E15
:10149000164045EA0601F0BC01F09DBD0CED00E0F0
:1014A000064A00F0070110684FF6FF03184040EAB3
:1014B0000120034908431060704700000CED00E074
:1014C0000000FA05124970B50A68D243520705D5E3
:1014D000096801F00701814212D117E00A6822F081
:1014E000070202430A60FFF719FF094D4FF47A76AD
:1014F0000446083D06E0FFF711FF001BB04201D98A
:10150000012070BD2868C0438004F4D4002070BD61
:101510000C4802582DE9FC5F044600680025FD4F89
:10152000C043DFF8F4A32E46010104F10800019046
:1015300004F1280000901DD4606E50B1B0F5801FFA
:101540000CD0B0F5001F0ED0B0F5401F1ED0012505
:101550000FE0386840F40030386017E0019802214D
:1015600001F0E6FA03E00098022101F06BFB0500B0
:101570000CD02E462088C043C00523D4A06D05287A
:101580001ED2DFE800F00C11161B1B00DAF8001069
:10159000626E21F440111143CAF80010EAE738687E
:1015A00040F40030386009E00198002101F0C0FAF1
:1015B00003E00098002101F045FB0546B5B100E0CD
:1015C00001252E462088DFF85483C04340052FD4E0
:1015D000D4F8A400B0F5C00F28D010DCB8B1B0F535
:1015E000001F19D0B0F5800F0FD11AE0DAF8001003
:1015F000A26D21F007011143CAF80010E2E7B0F52F
:10160000000F13D0B0F5200F10D001250FE038687F
:1016100040F40030386009E00198002101F088FAB8
:1016200003E00098002101F00DFB054695B12E4620
:101630002088C043000530D4D4F8A800B0F1407F22
:1016400029D011DCC0B1B0F1807F1AD0B0F1007F99
:1016500010D11BE0D8F80010D4F8A42021F46001C8
:101660001143C8F80010E3E7B0F1806F13D0B0F178
:10167000A06F10D001250FE0386840F400303860CA
:1016800009E00198002101F053FA03E000980021DD
:1016900001F0D8FA054685B12E462068DFF880B201
:1016A000C04380011FD4E06CD8B110280FD020288F
:1016B00012D0302815D0012514E0D8F80010D4F845
:1016C000A82021F0E0611143C8F80010E5E7386870
:1016D00040F40030386004E00198022101F028FA5B
:1016E000054675B12E462088C043C0042BD4E06D5A
:1016F000B0F5005F20D00DDCA0B1B0F5805F0FD158
:1017000015E0DBF80010E26C21F030011143CBF85A
:101710000010E8E7B0F5405F13D0B0F5804F10D06F
:1017200001250FE0386840F40030386009E0019886
:10173000002101F0FDF903E00098002101F082FA98
:1017400005468DB12E462088C043800429D4206EE2
:10175000B0F5403F23D010DC08B3B0F5803F14D083
:10176000B0F5003F0FD115E0DAF80010E26D21F47A
:10177000E0411143CAF80010E5E7B0F5802F0ED024
:10178000B0F5A02F0BD001250AE00198012101F04E
:10179000CFF903E00098012101F054FA054695B114
:1017A0002E462088C04340042AD4D4F8AC00B0F1BF
:1017B000405F23D010DC08B3B0F1805F14D0B0F1EB
:1017C000005F0FD115E0DAF80010226E21F4E0215D
:1017D0001143CAF80010E4E7B0F1804F0ED0B0F129
:1017E000A04F0BD001250AE00198012101F0A0F9DA
:1017F00003E00098012101F025FA054675B12E4657
:101800002088C04300041FD4E06ED8B1B0F1805FDF
:101810000ED0B0F1005F10D0012514E0D8F8001010
:10182000D4F8AC2021F0E0411143C8F80010E7E7FC
:10183000386840F40030386004E00198012101F07C
:1018400077F9054675B12E462068C043C0011ED405
:10185000A06CD0B101280ED0022811D0032814D0DA
:10186000012513E0DAF80010E26E21F04051114337
:10187000CAF80010E8E7386840F40030386004E047
:101880000198022101F054F905466DB12E462068F9
:10189000C043400259D42348016841F4807101607B
:1018A000FFF73CFD81460EE0DBF80010A26C21F052
:1018B00003011143CBF80010E9E7FFF72FFDA0EB80
:1018C0000900642839D817480068C005F5D55DBB04
:1018D000124818300068B4F8B01000F4407001F4F9
:1018E000407188420DD00D4818300168026821F41B
:1018F000407142F480320260026822F48032026059
:101900000160D4F8B000B0F5807F25D1FFF706FD67
:10191000814614E02C44025850440258584402585E
:101920004C440258004802580EE0FFF7F7FCA0EBC9
:10193000090141F28830814201D9032504E0FE48C3
:1019400000688007F1D53DB12E462078DFF8EC9392
:10195000C043C00720D03BE0D4F8B000C0F3012161
:1019600003290ED0F5484438016821F47C51016008
:10197000F1480168B4F8B020C2F30B0211430160D2
:10198000E3E7EE4944390A68ED4B22F47C5203EA5E
:10199000101002430A60EBE7A06F182816D005DC90
:1019A000A0B1082808D0102804D10AE020280DD0C2
:1019B00028280BD001250AE00198012101F0B8F890
:1019C00003E00098012101F03DF9054665B12E467E
:1019D0002078C04380071ED4606F062819D2DFE844
:1019E00000F0160C11161616D9F80010A26F21F08F
:1019F00038011143C9F80010EAE70198012101F00C
:101A000097F803E00098012101F01CF905467DB12B
:101A100000E001252E462078C04340071FD4D4F8AB
:101A20009000062819D2DFE800F0160C11161616E1
:101A3000D9F80010626F21F007011143C9F80010B6
:101A4000E9E70198012101F073F803E00098012112
:101A500001F0F8F80546A5B100E001252E462078F2
:101A6000C04380062BD4D4F88C00B0F1405F24D062
:101A700011DC10B3B0F1805F15D0B0F1005F10D170
:101A800016E0D8F80010D4F8902021F00701114397
:101A9000C8F80010E3E7B0F1804F0ED0B0F1A04FCE
:101AA0000BD001250AE00198002101F041F803E084
:101AB0000098022101F0C6F8054695B12E4620781F
:101AC000C04340062BD4D4F89800B0F5406F24D022
:101AD00011DC10B3B0F5806F15D0B0F5006F10D1E8
:101AE00016E0D9F80010D4F88C2021F0E041114321
:101AF000C9F80010E3E7B0F5805F0ED0B0F5A05F45
:101B00000BD001250AE00198002101F011F803E053
:101B10000098022101F096F8054695B12E462078EE
:101B2000C04300062BD4D4F89C00B0F5C04F24D09D
:101B300011DC10B3B0F5005F15D0B0F5804F10D1B7
:101B400016E0D8F80010D4F8982021F4E0511143A1
:101B5000C8F80010E3E7B0F5004F0ED0B0F5204F05
:101B60000BD001250AE00198002100F0E1FF03E01D
:101B70000098022101F066F8054655B12E462078FE
:101B8000C04300071ED4D4F88000B0F5805F0AD0AF
:101B90000FE0D8F80010D4F89C2021F460411143E4
:101BA000C8F80010EBE70098022101F04BF800B1F3
:101BB0000126D9F80010D4F8802021F440511143B7
:101BC000C9F800102078C043C00613D4D4F894009C
:101BD000B0F5807F05D10098022101F033F800B103
:101BE0000126D8F80010D4F8942021F44071114354
:101BF000C8F800102068C043000316D4D4F8A00031
:101C000038B1B0F5803F09D0B0F5003F0BD00125C9
:101C10000AE00198002100F08BFF03E00098022108
:101C200001F010F805468DB12E462068C0434003F0
:101C300022D4D4F88400B0F5801F11D0B0F5001F75
:101C400013D0B0F5401F15D0012514E0D8F80010CE
:101C5000D4F8A02021F440311143C8F80010E4E783
:101C6000386840F40030386004E00098012100F04A
:101C7000E9FF05465DB12E462068C043C0031CD471
:101C8000206D70B1B0F5803F10D0012514E0D9F877
:101C90000010D4F8842021F440111143C9F8001039
:101CA000EAE7386840F40030386004E00198022127
:101CB00000F03EFF0546DDB12E462068C04380009F
:101CC00005D40098022100F0BDFF00B10126206874
:101CD000C04380031BD4E06FB8B1B0F5807F10D053
:101CE000B0F5007F11D0B0F5407F0ED001250DE09A
:101CF000DBF80010226D21F480311143CBF8001085
:101D0000DBE7386840F400303860EDB32E462068D9
:101D1000C043C00207D4DAF80010226F21F000415E
:101D20001143CAF800102068C04380020ED4DAF8CC
:101D3000001021F0807105E07044025854440258AC
:101D4000CFFFFF00A26E1143CAF800102068C04305
:101D5000400009D43D48016821F400410160016858
:101D6000D4F8B420114301602068C04307D4DBF8E5
:101D70000010626D21F040511143CBF80010206833
:101D8000C04300020AD400E010E0D9F80010D4F8F3
:101D9000882021F440011143C9F800102079002562
:101DA000C04300F00100284309D00EE0D9F800102C
:101DB000E26F21F440711143C9F80010A7E70198C0
:101DC000002100F0B5FE00B106462079C04300F0C6
:101DD0000200284305D10198012100F0A9FE00B1BD
:101DE00006462079C04300F00400284305D101983D
:101DF000022100F09DFE00B106462079C04300F0AC
:101E00000800284305D10098002100F01BFF00B115
:101E100006462079C04300F01000284305D1009801
:101E2000012100F00FFF00B106462079C04300F009
:101E30002000054304D10098022100F003FF00B9FF
:101E400016B10120BDE8FC9F0020FBE710440258BA
:101E50002DE9F05F04000D467ED0DFF84492D9F8FA
:101E6000000000F00F00A8420CD2D9F8001021F0B9
:101E70000F012943C9F80010D9F8000000F00F0045
:101E8000A84269D12078874E40070AD52069316879
:101E900001F07001884204D9316821F070010143DA
:101EA00031602078DFF8008200070CD56069414678
:101EB000D8F8002002F07002904204D90A6822F09B
:101EC000700202430A602078C0060CD5A069414622
:101ED000D8F8002002F4E062904204D90A6822F4A3
:101EE000E06202430A602078DFF8C0B180060CD5BA
:101EF000E0695946DBF8002002F07002904204D9F4
:101F00000A6822F0700202430A60207880070AD52E
:101F1000E068316801F00F01884204D9316821F08E
:101F20000F01014331602078C0073DD03068A168BF
:101F300020F47060084330605A49606818390228FC
:101F400018D0032819D00968012819D04907002999
:101F500049DADFF850A100E045E0AAF1080ADAF812
:101F6000001021F007010143CAF80010FFF7D6F96D
:101F7000074611E009688903E9E709688901E6E78E
:101F8000C905E4E7FFF7CAF9C11B41F28830814275
:101F900002D90320BDE8F09FDAF80000616800F084
:101FA0003800B0EBC10FEDD1207880070AD5E0688A
:101FB000316801F00F01884204D2316821F00F012D
:101FC00001433160D9F80010484601F00F01A942E1
:101FD0000BD9016821F00F0129430160006800F06E
:101FE0000F00A84201D00120D4E7207840070AD58D
:101FF0002069316801F07001884204D2316821F013
:10200000700101433160207800070CD560694146BA
:10201000D8F8002002F07002904204D20A6822F040
:10202000700202430A602078C0060CD5A0694246BF
:10203000D8F8001001F4E061884204D2116821F45C
:10204000E06101431160207880060CD5E0695946B3
:10205000DBF8002002F07002904204D20A6822F0FD
:10206000700202430A6000F08FF83168C1F3032266
:102070000F498A5C02F01F02D040326802F00F0262
:10208000895C0C4A01F01F0120FA01F111600A4934
:1020900008600A480068BDE8F05FFFF77BB9000000
:1020A00000200052184402581C4402582044025890
:1020B000303A000814000024100000240800002416
:1020C0003F220260144A126802F007024260124A7C
:1020D0000832136803F470638360136803F00F031E
:1020E000C360126802F0700202610B4A0C3213687E
:1020F00003F070034361126802F4E0628261064AF1
:102100001032126802F07002C2610448006800F0E8
:102110000F00086070470000104402580020005271
:1021200000B500F031F80B4A11681268C1F30323BF
:102130000949CB5C03F01F03D84002F00F02895C11
:10214000064A01F01F0120FA01F11160044A1060F3
:10215000084600BD18440258303A00081400002414
:102160001000002400B5FFF7DBFF05490968054AA8
:10217000C1F30211515C01F01F01C84000BD000015
:102180001C440258303A0008434830B50068444CBB
:1021900010F03801414808D00211082903D0102955
:1021A0000BD018290BD0104630BD21688906FBD50D
:1021B0002168C1F3C101C84030BD3A4830BD36493D
:1021C00018310A68096802F00302334B1C33C1F36B
:1021D00005111B68304D03F0010324352D68C5F34C
:1021E000CC0515FB03F300EE103AB8EE400AE9B354
:1021F000294BDFED2D0A2033B7EE001A62B1DFED77
:102200002B1A012A01D0022A3CD002EE101AF8EE55
:10221000422A81EEA22A17E0226892060CD5226893
:10222000C2F3C102D04001EE900AF8EE612A01EE3D
:10223000901AF8EE611A05E001EE901ADFED1C2A03
:10224000F8EE611A82EEA12A1868C0F3080001EEC8
:10225000900A1868F8EE611A40EE201A31EE810AF1
:1022600022EE000AC0F34620401C00E011E000EE20
:10227000900AF8EE600A80EE201ABCEEC10A10EE59
:10228000100A30BD01EE901ADFED0A2AF8EE611A4D
:10229000D8E7002030BD0000104402580090D00361
:1022A0000044025800366E01000000390024744AD0
:1022B0000024744C001BB74B2DE9F05F040078D06C
:1022C0002078DFF8F893FE4EFE4DC00747D0D9F8CE
:1022D0000000316800F03800102815D0182803D10C
:1022E00001F0030002280FD06068B0F5803F12D0E3
:1022F00010B1B0F5A02F18D0286820F480302860E5
:10230000286820F4802009E02868800327D56068C9
:102310000028D4D023E0286840F48030286060682A
:1023200088B1FEF7FBFF074609E0286840F48020EB
:102330002860F0E7FEF7F2FFC01B64287ED828680B
:102340008003F7D50BE0FEF7E9FF074604E0FEF750
:10235000E5FFC01B6428F1D828688003F7D42078F3
:10236000800753D5D9F80000316810F03800DFF845
:1023700058830ED0182801D188070AD0E068A0B38E
:10238000296821F0190101432960FEF7C7FF0746BC
:1023900027E02868400702D5E06800288FD0286829
:1023A000E16820F0190008432860FEF7B7FF0746F0
:1023B00005E0D1E0FEF7B2FFC01B0228BED82868B6
:1023C0004007F7D5D8F80010227C21F0FE4141EA01
:1023D0000261C8F8001019E0FEF7A0FFC01B022838
:1023E000ACD828684007F7D5ECE7FFE7286820F06D
:1023F00001002860FEF792FF074604E0FEF78EFF1B
:10240000C01B02289AD828684007F7D42078C00655
:1024100046D5D9F80000316800F03800DFF89C821A
:102420000828A8F1040812D0182803D101F00300ED
:1024300001280CD0E0690028286800E0C7E020D01F
:1024400040F080002860FEF769FF074615E0286825
:10245000C00502D5E06980287ED1D8F8001094F834
:10246000202021F07C5141EA0261C8F8001017E0F9
:10247000FEF754FFC01B0228A0D82868C005F7D576
:10248000EBE720F080002860FEF748FF074604E0F5
:10249000FEF744FFC01B022890D82868C005F7D477
:1024A0002078000728D5864960694C310028884685
:1024B0000846096810D041F001010160FEF72EFFC7
:1024C000074604E0FEF72AFFC01B022888D8D8F888
:1024D00000008007F6D50FE021F001010160FEF752
:1024E0001DFF074604E0FEF719FFC01B02286ED847
:1024F000D8F800008007F6D42078800622D5A0699D
:10250000002828680FD040F480502860FEF706FFAE
:10251000074604E0FEF702FFC01B022857D82868D0
:102520008004F7D50EE020F480502860FEF7F6FE18
:10253000074604E0FEF7F2FEC01B022847D82868D1
:102540008004F7D4207840074FD5DFF88081D8F891
:10255000001041F4807100E017E1C8F80010FEF7A8
:10256000DDFE074604E0FEF7D9FEC01B64282ED826
:10257000D8F80000C005F6D5514FA06848370128AB
:102580000AD008B1052813D0386820F0010038605F
:10259000386820F0040002E0386840F0010038603C
:1025A000A06841F2883A98B1FEF7B8FE80460AE08A
:1025B000386840F004003860EEE7FEF7AFFEA0EBAD
:1025C0000801514503D838688007F6D50DE07FE053
:1025D000FEF7A4FE804605E0FEF7A0FEA0EB080192
:1025E000514575D838688007F6D4616A002970D0E3
:1025F000D9F800004FF6F87BDFF8C48008F108082E
:10260000C0F3C200032808F10409A8F1040A7DD030
:102610002868022920F08070286003D0FEF77EFE33
:10262000044687E0FEF77AFE074604E0FEF776FEF2
:10263000C01B02287BD828688001F7D4306840F29C
:10264000F3318843E16A40EA0110A16A084330602F
:1026500094F834004FF4FE02218E4002491EA0F58A
:10266000007080B2C1F308010843218F491E02EABD
:102670000141084394F83C101202491E02EA01612C
:102680000843C8F80000DAF80010504621F00101B4
:10269000CAF80010D9F80020A36C22EA0B0242EA23
:1026A000C302C9F80020DAF80010226C21F00C01F6
:1026B0001143CAF80010DAF800100BE01044025879
:1026C0002844025800440258044402580048025862
:1026D0002DE07DE0626C21F0020111430160016890
:1026E00041F480310160016841F40031016001680A
:1026F00041F480210160016841F001010160286816
:1027000040F080702860FEF709FE00E016E0044605
:1027100004E0FEF703FE001B022808D828688001A9
:10272000F7D555E0FEF7FAFD001B022802D9032079
:10273000BDE8F09F28688001F4D449E03268D8F8F9
:102740000000012921D0A36A02F0030199421CD1A3
:10275000E16AC2F30512914217D1216BC0F308025E
:10276000491E8A4211D1616BC0F34622491E914233
:102770000BD1A16BC0F30642491E914205D1E16B1A
:10278000C0F30660491E814201D00120D0E7D9F88C
:1027900000004F46A16CC0F3CC00814218D0DAF89B
:1027A0000000564620F00100CAF80000FEF7B6FD12
:1027B0000546FEF7B3FDA842FBD03868A16C20EABD
:1027C0000B0040EAC1003860306840F00100306022
:1027D0000020ADE770477047704710B5040003D084
:1027E00094F83D0010B107E0012010BD002084F8EE
:1027F0003C00204600F022F8022084F83D002068CA
:10280000211D00F079FB012084F8480084F83E0087
:1028100084F83F0084F8400084F8410084F84200C6
:1028200084F8430084F8440084F8450084F84600A6
:1028300084F8470084F83D00002010BD7047000078
:1028400090F83D10012901D001207047022180F845
:102850003D100168CA6842F00102CA60006816496A
:1028600088421AD0B0F1804F17D01449884214D052
:102870001349884211D0134988420ED01249884228
:102880000BD01249884208D01149884205D011491D
:10289000884202D01049884207D181680F4A11400E
:1028A000062906D0B1F5803F03D0016841F001014F
:1028B000016000207047000000000140000400405B
:1028C00000080040000C00400004014000180040D7
:1028D0000040014000E0004000E40040070001002B
:1028E00070472DE9F04104460068C66805694FF05D
:1028F0000007A90713D5B10711D5F91E0161012001
:102900002077206880698007204602D0FFF7E8FF23
:1029100004E000F08BF8204600F089F8277768077C
:1029200016D5700714D521686FF0040008610220E5
:1029300020772068806910F4407F204602D0FFF79E
:10294000CFFF04E000F072F8204600F070F827771F
:10295000280715D5300713D521686FF008000861E6
:10296000042020772068C0698007204602D0FFF746
:10297000B7FF04E000F05AF8204600F058F8277737
:10298000E80616D5F00614D521686FF0100008612E
:10299000082020772068C06910F4407F204602D0CC
:1029A000FFF79EFF04E000F041F8204600F03FF8FA
:1029B0002777E80708D0F00706D021686FF00100FC
:1029C0000861204600F034F8280601D4A80408D590
:1029D000300606D521686FF4025008612046FFF7E3
:1029E000FAFEE80508D5300606D521686FF4807038
:1029F00008612046FFF7EEFE680608D5700606D58A
:102A000021686FF040000861204600F018F8A80621
:102A10000AD5B00608D521686FF02000086120466D
:102A2000BDE8F041FFF7D8BEBDE8F08170477047C0
:102A30000068B0F1804F01D1FEF776BC7047704757
:102A4000FEE700000749064810B508600846FDF794
:102A500074FF002803D0BDE81040FDF7EABD10BDAB
:102A6000004402488400002418480A2270B5164920
:102A700001250160002181600323C1601D240174D0
:102A800041748574C461C0E90532C0E90823C0E916
:102A90000A248563C0E90C21C0E90F130422102326
:102AA000C0E91121C0E913214265C0E9161303668C
:102AB000C0E91912FEF770F9002803D0BDE8704094
:102AC000FDF7B7BD70BD000000A00040AC000024C1
:102AD000044A0021044810B500F0F2FA03490860E6
:102AE00010BD0000B0390008592D00080000002476
:102AF0000D4808B5016841F080010160016801F0EE
:102B000080010091016841F001010160016801F05C
:102B100001010091016841F008010160006800F0C6
:102B20000800009008BD0000E0440258FEE7FEE700
:102B30002DE9F047DFF8088104460E464FF0000902
:102B4000D8F80000C043800709D03D4D283D2868D3
:102B500020F080602860FEF7E1FB074607E00120D7
:102B6000BDE8F087FEF7DAFBC01B022860D82868B2
:102B70000001F7D4D8F80010226821F47C3141EA32
:102B80000231C8F80010207A4FF4FE02A1884002FA
:102B9000491EA0F5007080B2C1F308010843A18965
:102BA000491E02EA01410843217C1202491E02EA41
:102BB000016108432249103108602148001D016865
:102BC000626921F0C001114301600168A26921F02E
:102BD000200111430160016821F0100101601849D2
:102BE00014310A684FF6F8739A43E36942EAC30264
:102BF0000A60016841F0100101606EB10168012EA8
:102C00000ED041F400110160286840F08060286017
:102C1000FEF784FB04460DE0016841F40021F2E771
:102C200041F48011EFE7FEF779FB001B022801D980
:102C3000032095E728680001F5D5484690E7000095
:102C4000284402582DE9F047DFF8088104460E4673
:102C50004FF00009D8F80000C043800709D03D4D6F
:102C6000283D286820F080502860FEF757FB074673
:102C700007E00120BDE8F087FEF750FBC01B0228EB
:102C800060D828688000F7D4D8F80010228821F096
:102C90007C7141EA0251C8F80010207A4FF4FE021C
:102CA000A1884002491EA0F5007080B2C1F308015E
:102CB0000843A189491E02EA01410843217C12020E
:102CC000491E02EA0161084322491831086021487F
:102CD000001D0168626921F44061114301600168CF
:102CE000A26921F4007111430160016821F480712F
:102CF000016018491C310A684FF6F8739A43E3697A
:102D000042EAC3020A60016841F4807101606EB159
:102D10000168012E0ED041F080710160286840F0FA
:102D200080502860FEF7FAFA04460DE0016841F48D
:102D30008001F2E741F40001EFE7FEF7EFFA001B34
:102D4000022801D9032095E728688000F5D5484678
:102D500090E7000028440258012000F091F9FBE7B9
:102D60004FF0E02010B5006900F04AFD012803D0C3
:102D7000BDE8104000F0D4BC10BD000010B59CB000
:102D80004C216846FDF7B0FB202113A8FDF7ACFBF2
:102D90000220FEF797FB1E480024016821F4404101
:102DA0000160016801F440411B910168C943890435
:102DB000FBD4012128220804CDE90C211294CDE98D
:102DC00000100220099004210A900B90CDE90E100A
:102DD0000C20CDE910046846FFF76EFA08B172B610
:102DE000FEE73F2013900320CDE91404082016903D
:102DF000402017901A900101CDE91801032113A872
:102E0000FFF726F8002801D072B6FEE71CB010BD0F
:102E1000184802582D4810B5016841F4700101604E
:102E20002B4A106800F00F00072804D2106820F029
:102E30000F00C01D10602749086840F001000860BD
:102E4000244B0020103318600B68234C23400B6088
:102E5000136803F00F03072B04D9136823F00F0343
:102E6000DB1D13601B4A18321060121D1060121D0A
:102E70001060184B194A28331A601B1D184A1A6033
:102E80001B1D184A1A601B1D18601B1D1A601B1D94
:102E900018601B1D1A601A1D10600A6822F4802237
:102EA0000A600C49603108600A48D4300168C904DE
:102EB0000BD4016841F4805101600B4A43F2D20106
:102EC0001160016821F48051016010BD88ED00E0BF
:102ED00000200052004402587FEDF6EA0002020290
:102EE0000000FF0180020101004000520148FFF78D
:102EF000F8BC00004C0100242DE9F04702684FF0B7
:102F0000804A2A4C2A4D2B4EA0422B4F2B4B09D0E6
:102F1000504507D0A84205D0B04203D0B84201D0F6
:102F2000984204D122F0700C4A6842EA0C02DFF8A1
:102F300090C0DFF89080A042DFF88C9015D050450B
:102F400013D0A84211D0B0420FD0B8420DD0984251
:102F50000BD0604509D0404507D0484505D01B4DF2
:102F6000A84202D01A4DA84203D122F44075CA6883
:102F70002A434D6922F080022A438D68C5620D689C
:102F80008562A04207D0984205D0604503D04045F5
:102F900001D0484501D109690163016841F004018C
:102FA0000160012141610260BDE8F087000001403D
:102FB0000004004000080040000C004000040140F4
:102FC00000400140004401400048014000E0004052
:102FD00000E40040FEE70907090E002804DB00F1C9
:102FE000E02080F80014704700F00F0000F1E020AE
:102FF00080F8141D70470000A6B0FEF79DF9FFF79A
:10300000BDFEFFF775FDFFF71DFDFFF72DFD00F07D
:1030100045F8FFF75DFD194800258DF804501FA9FC
:10302000009002208DF87C5040F223122090012065
:10303000CDE9210568462395FDF73CFC0121684652
:10304000FDF7D6FA4CF2503468460121B0EE080A7A
:10305000FDF7E5FA24952498401C2490A042FAD369
:1030600024952498401C2490A042FAD324952498B7
:10307000401C2490A042FAD3E6E70000AC000024F4
:1030800010B5EFF3058111B16FF0050403E00024E2
:1030900008B100F0E5FA204610BD0000EFF305800E
:1030A00010B16FF0050070470448016811B14FF08E
:1030B000FF30704701210160002070475400002458
:1030C0002DE9FF410B464FF00005EFF30581039515
:1030D00049BB40B38026182100244AB3176807B1C2
:1030E0003C46976907B139464F1E382F02D21779EF
:1030F000FF0703D0002004B0BDE8F081576907B195
:10310000BE08D2F808C0BCF1000F0DD0D5685C2D08
:1031100018D312693AB137B18DE80610324621460C
:1031200000F041FB03900DE0D7685FB912694AB91E
:1031300003AACDE90012B2B2214600F007FB012834
:1031400000D003950398D6E72DE9F041134E0F46C2
:103150000446F5683068001D00F0D6F9601C07D100
:1031600037B13168BDE8F0410D48091D00F005BADE
:1031700030682C44AC424460316805D2B06B091D04
:10318000BDE8F04100F0E1B9706B091D00F0DDF918
:10319000B06A844200D2B462BDE8F0811800002415
:1031A000480600242DE9F041054600F0F3F92D4EC4
:1031B000B068401CB06030682B4F10B1706930B3FC
:1031C0002BE03560B068012827D1002404EB84008F
:1031D00007EB800000F0ABF9641C382CF6D32348D1
:1031E00000F0A5F92148143000F0A1F91F4828305B
:1031F00000F09DF91D483C3000F099F91B48503013
:1032000000F095F9194870631430B06305E0306838
:10321000E96AC06A884200D83560706A401C7062F2
:103220006864E86A3169884200D9306100EB800047
:10323000291D07EB800000F0A0F900F0CBF97069C0
:1032400000280CD03068E96AC06A884207D2084971
:103250004FF080500860BFF34F8FBFF36F8FBDE812
:10326000F08100001800002498010024F8050024D3
:1032700004ED00E010484FF47051420706D00E49AB
:10328000C01D20F00700411AC1F570510B4A002300
:1032900001440839C2E90003183A21F0070111601E
:1032A0004B600B600B1AC0E9001393604FF00040B5
:1032B00053605061704700005C06002470000024D9
:1032C0002DE9F05F0E469A4691001746DDE90B9412
:1032D0000A9DA5228346206BFDF7FEF8206B6FF058
:1032E000030101EB8701084420F00707780707D0A6
:1032F000502080F31188BFF34F8FBFF36F8FFEE72D
:103300004FF0000866B100202218315C82F83410BA
:10331000315C11B1401C1028F6D384F8438001E0E1
:1033200084F83480382D00D33725E562201DC4E9A8
:10333000135800F007F904F1180000F003F92461B4
:10334000C5F138006462A061C4F8548084F85880E4
:1033500052465946384600F0C1F8B9F1000F2060D6
:1033600001D0C9F80040BDE8F09F000030B5114918
:1033700000E011460A688242FBD34B685C18844225
:1033800003D1406818444860084643681C189442BA
:1033900009D1084C183C2468A24209D052681A444A
:1033A00042600A6812680260814200D0086030BD45
:1033B0000460F9E7700000240648416B096829B1F0
:1033C000416BC968C9684968816270474FF0FF3135
:1033D000FAE700001800002408484068401C4FF03D
:1033E000500080F3118804D0BFF34F8FBFF36F8F6D
:1033F000FEE7BFF34F8FBFF36F8FFEE77800002427
:103400002DE9F0410026054600F050F9324F3868AA
:1034100008B9FFF72FFF786905424ED1C5B30835CB
:1034200068070ED005F00700C0F1080005446807E2
:1034300007D0502080F31188BFF34F8FBFF36F8FF9
:10344000FEE72DB37868854237D8234918310846FE
:10345000046801E0214604466068A84202D2206860
:103460000028F7D13868844227D00E6820680860A9
:1034700008366068411B10290FD96019420708D02F
:10348000502080F31188BFF34F8FBFF36F8FFEE79B
:1034900013E041606560FFF769FF61687868401A72
:1034A0007860BA68904200D2B86078690143002021
:1034B000C4E90001F868401CF86000F013FA7007D6
:1034C00007D0502080F31188BFF34F8FBFF36F8F69
:1034D000FEE73046BDE8F08158000024031F10B518
:1034E0004FF080741C601B1F21F001011960191F2F
:1034F000044B0B6014390A60091F44386FF0020254
:103500000A6010BDD9330008D0E9013201699A6020
:10351000D0E901235A604A68824201D182684A6038
:10352000002202610868401E0860086870474FF07A
:10353000FF3200F10801C0E90112C1600161002100
:103540000160704700210161704730B50C68621C52
:1035500002D000F1080202E0026904E01A46536852
:103560001D68A542FAD953684B6099608A60516022
:1035700008610168491C016030BD42684A60936877
:103580008B6093685960916008610168491C016013
:1035900070470000502080F31188BFF34F8FBFF3B6
:1035A0006F8F0A494868401C486001280CD10848C0
:1035B000006810F0FF0F07D0502080F31188BFF390
:1035C0004F8FBFF36F8FFEE7704700007800002435
:1035D00004ED00E00849486828B1401E486001D168
:1035E00080F311887047502080F31188BFF34F8F0C
:1035F000BFF36F8FFEE700007800002470B500284D
:103600002AD0164DA0F1080460686969084207D104
:10361000502080F31188BFF34F8FBFF36F8FFEE709
:1036200022683AB1502080F31188BFF34F8FBFF367
:103630006F8FFEE78843606000F038F86068696863
:10364000084468602046FFF791FE2869401C286105
:10365000BDE8704000F046B970BD0000580000247D
:10366000020010B514D00F48006B38B1502080F321
:103670001188BFF34F8FBFF36F8FFEE700F016F88E
:1036800000211046FFF760FD00F02CF9002807D15B
:1036900005494FF080500860BFF34F8FBFF36F8F25
:1036A00010BD00001800002404ED00E00248016B8A
:1036B000491C01637047000018000024164B10B528
:1036C000186B10B10120D86110BD0020D8611869B5
:1036D000124901E0B8B1401E00EB800251F82220EF
:1036E000002AF7D000EB800201EB820101F108040F
:1036F0004A6852684A60A24201D152684A60D16861
:103700001960186110BD502080F31188BFF34F8FEE
:10371000BFF36F8FFEE7000018000024980100241B
:10372000502010B580F31188BFF34F8FBFF36F8F18
:1037300000F074F818B104494FF080500860002080
:1037400080F3118810BD000004ED00E02DE9FF5F5B
:10375000994616468A4683469000DDE90E87FFF7B4
:103760004FFE05001CD05C20FFF74AFE040014D079
:103770000020256384F859004B46CDE90087CDE948
:103780000240324651465846FFF79AFD2046FFF761
:1037900009FD012004B0BDE8F09F2846FFF72EFF89
:1037A0004FF0FF30F6E7F0B585B00546DDE90B04D4
:1037B0000A9EA8B1E4B15C2700972063022084F838
:1037C0005900002004AFCDE90240CDE9006728464A
:1037D000FFF776FD2046FFF7E5FC049805B0F0BD45
:1037E000502080F31188BFF34F8FBFF36F8FFEE738
:1037F000502080F31188BFF34F8FBFF36F8FFEE728
:103800000548416919B1006B18B1002070470120CB
:103810007047022070470000180000242DE9F04195
:103820002E4F0026386B28B1B869401CB86130466D
:10383000BDE8F081FD686D1CFD6013D1786B0068F8
:1038400038B1502080F31188BFF34F8FBFF36F8FD3
:10385000FEE7786BB96B7963B863386A401C3862ED
:10386000FFF7AAFDB86ADFF87880854209D3786B44
:103870000068A0B1786BC068C4686068854211D2E6
:10388000B8623868C06A00EB800158F8210001284E
:1038900000D90126F8690028C9D00126C7E74FF0F2
:1038A000FF30EDE7201DFFF72FFEA06A18B104F1ED
:1038B0001800FFF729FEE06A3969884200D93861AB
:1038C00000EB800108EB8100211DFFF756FEE06A46
:1038D0003968C96A8842CAD30126C8E7180000249B
:1038E000980100242DE9F0472B4D00242746286B32
:1038F00038B1FFF74FFE286B401E2863286B40B19C
:1039000045E0502080F31188BFF34F8FBFF36F8FD6
:10391000FEE7A86801262149C8B3A1F59169884648
:10392000D8F80010E1B1D8F80C00C46804F1180010
:10393000FFF7EAFD201DFFF7E7FDE06A29698842ED
:1039400000D9286100EB800109EB8100211DFFF700
:1039500014FEE06A2968C96A8842E1D3EE61DFE7B4
:103960000CB1FFF729FDAC693CB1FFF757FF00B17F
:10397000EE61641EF9D10020A861E86938B10849F8
:10398000012738070860BFF34F8FBFF36F8FFFF732
:1039900021FE3846BDE8F0871800002420060024E8
:1039A00004ED00E04FF04070E1EE100A70470000B7
:1039B000403A000800000000000000000000000085
:1039C00000000000000200001800000000000000DD
:1039D000000000000001020304050607080C101493
:1039E000182030400000000000000000000000002F
:1039F00000000000000000000100000002000000C4
:103A000003000000040000000000000005000000AA
:103A100000000000000000000000000006000000A0
:103A2000000000000000000000000000070000008F
:103A30000000000001020304010203040607080954
:103A400064656661756C745461736B006C3A000850
:103A5000000000248400000008030008F03A000879
:103A6000840000243C4800002403000800000000FB
:103A70000100000010000000000000000090D003D2
:103A80000090D003000000000000000000000000D3
:103A90000000000000000000000000000000000026
:103AA0000000000000000000000000000000000016
:103AB0000000000000000000000000000000000006
:103AC00000000000000000000000000000000000F6
:103AD00000000000000000000000000000000000E6
:103AE0000000000000000000AAAAAAAA000000002E
:04000005080002CD20
:00000001FF
